:020000040800F2
:100000000080012059370008310700083307000835
:10001000350700083707000839070008000000000E
:100020000000000000000000000000003B07000886
:100030003D070008000000003F07000841070008D6
:10004000A9370008A9370008A9370008A937000810
:10005000A9370008A9370008A9370008A937000800
:10006000A9370008A9370008A9370008A9370008F0
:10007000A9370008A9370008A9370008A9370008E0
:10008000A9370008A9370008A9370008A9370008D0
:10009000A9370008A9370008A9370008A9370008C0
:1000A0004D070008A9370008A9370008A93700083C
:1000B000A9370008A9370008A9370008A9370008A0
:1000C000A9370008A9370008A9370008A937000890
:1000D000A9370008A9370008A9370008A937000880
:1000E000A9370008A9370008A9370008A937000870
:1000F000A9370008A9370008A9370008A937000860
:10010000A9370008A9370008A9370008A93700084F
:10011000A9370008A9370008A9370008A93700083F
:10012000A9370008A9370008A9370008A93700082F
:10013000A9370008A9370008A9370008A93700081F
:10014000A9370008A9370008A9370008A93700080F
:10015000A9370008A9370008A9370008A9370008FF
:10016000A9370008A9370008A9370008A9370008EF
:10017000A9370008A9370008A937000800000000C7
:08018000A9370008A9370008A7
:1001880010B5054C237833B9044B13B10448AFF3C9
:1001980000800123237010BD7800002000000000BB
:1001A8000839000808B5034B1BB103490348AFF3EE
:1001B800008008BD000000007C000020083900080D
:1001C80053B94AB9002908BF00281CBF4FF0FF31B6
:1001D8004FF0FF3000F072B9ADF1080C6DE904CEB4
:1001E80000F006F8DDF804E0DDE9022304B070470A
:1001F8002DE9F047089E04468846002B4BD18A42D9
:10020800154667D9B2FA82F24AB1C2F1200701FA5B
:1002180002F320FA07F7954047EA030894404FEAAB
:10022800154E230CB8FBFEF71FFA85FC0EFB17884A
:1002380043EA084307FB0CF1994209D9EB1807F187
:10024800FF3080F01B81994240F21881023F2B4415
:100258005B1AA4B2B3FBFEF00EFB103344EA03446E
:1002680000FB0CFCA44509D92C1900F1FF3380F0E0
:100278000781A44540F2048102382C4440EA074033
:10028800A4EB0C0400271EB1D4400023C6E90043A8
:100298003946BDE8F0878B4209D9002E00F0EB8083
:1002A8000027C6E9000138463946BDE8F087B3FAA9
:1002B80083F7002F47D18B4202D3824200F2FA80A3
:1002C800841A61EB030301209846002EE0D0C6E9AA
:1002D8000048DDE702B9FFDEB2FA82F2002A40F0F8
:1002E8008F80491B4FEA154E1FFA85F80127B1FB8D
:1002F800FEFC230C0EFB1C1143EA014308FB0CF126
:10030800994207D9EB180CF1FF3002D2994200F25A
:10031800CD808446591AA3B2B1FBFEF00EFB10142F
:1003280043EA044408FB00F8A04507D92C1900F15A
:10033800FF3302D2A04500F2B6801846A4EB0804A9
:1003480040EA0C409FE7C7F1200CBB4022FA0CFEA4
:100358004EEA030E01FA07F420FA0CF521FA0CF321
:100368004FEA1E482543B3FBF8F92C0C08FB193358
:100378001FFA8EFA44EA034309FB0AF49C4202FA84
:1003880007F200FA07F10BD91EEB030309F1FF305E
:1003980080F087809C4240F28480A9F1020973446E
:1003A8001B1BADB2B3FBF8F008FB103345EA03445E
:1003B80000FB0AFAA24508D91EEB040400F1FF333A
:1003C8006BD2A24569D90238744440EA0940A0FBBF
:1003D8000289A4EB0A044C45C2464B4654D351D07B
:1003E800002E69D0B1EB0A0564EB030404FA0CFC97
:1003F800FD40FC404CEA0505C6E90054002747E7E4
:10040800C2F1200320FA03F7954001FA02F021FA1D
:1004180003F34FEA154E3843010CB3FBFEF71FFAFE
:1004280085F80EFB173341EA034107FB08F38B42BB
:1004380004FA02F407D9691807F1FF3C2FD28B425E
:100448002DD9023F2944CB1A81B2B3FBFEF00EFB33
:10045800103341EA034100FB08F38B4207D96918BE
:1004680000F1FF3C17D28B4215D902382944C91A2A
:1004780040EA07473BE73746304609E70746E7E6DD
:100488001846FBE64145ABD2B8EB020A69EB0E020F
:1004980001381346A4E76046E9E7184695E767463A
:1004A800D1E781467CE702382C4447E7ACF1020CDF
:1004B8002B442FE7384608E73746E9E6704700BF80
:1004C80070B58AB00024059406940794089409949A
:1004D800324BDA6C42F00402DA64DA6C02F004029D
:1004E8000192019ADA6C42F08002DA64DA6C02F066
:1004F80080020292029ADA6C42F00102DA64DA6C43
:1005080002F001020392039ADA6C42F00202DA6402
:10051800DB6C03F002030493049B22464FF4A461AE
:100528004FF0904001F0FDFF1D4D22461021284656
:1005380001F0F7FF4FF4005305931A4B0693079405
:1005480005A9194801F0FCFE1323059306940794A6
:1005580005A94FF0904001F0F3FE4FF4A463059312
:10056800012606960794089405A94FF0904001F0DB
:10057800E7FE4FF4806305930694079405A928467F
:1005880001F0DEFE1023059306960794089405A94A
:10059800284601F0D5FE0AB070BD00BF0010024029
:1005A80000040048000021100008004808B5094868
:1005B800094B03604FF4E133436000238360C36059
:1005C80003610C2242618361C3610362436200F0EC
:1005D8007FFE08BD800100200044004008B50E4899
:1005E8000E4B03604FF482734360002383604FF423
:1005F800E062C260036143614FF4007282612822A5
:10060800C2610362436283620722C26203630823F2
:10061800436302F00AF908BD1C01002000300140C4
:1006280030B589B000240494059406940794019485
:10063800029403940F4D104B2B604FF4FA436B60F8
:10064800AC600A23EB602C616C618023AB612846A7
:1006580000F086FA4FF48053049304A9284600F06A
:10066800A5FA01940294039401A9284600F01AFB04
:1006780009B030BDD8000020002C014030B5B9B019
:100688002422002128A803F0B9F8002422942394F6
:1006980024942594269488222146684603F0AEF8CF
:1006A800022527954FF480732A9310232B933195B5
:1006B8003295012333930A233493072335933695D0
:1006C800379527A800F03AFF0F232293032323939B
:1006D800249425942694042122A801F0D7F90095A2
:1006E8000F94684601F004FC4FF4007001F026FFF7
:1006F80039B030BD08B500F039FEFFF7BFFFFFF78E
:10070800DFFEFFF753FFFFF769FFFFF789FF02F0EE
:1007180029FF02F05BFF034B1B68002BFBD002F0A4
:1007280055FFF8E7180100207047FEE7FEE7FEE7EF
:10073800FEE770477047704708B500F02DFE02F0DD
:100748006BFF08BD08B5024800F0D8F808BD00BF27
:10075800D800002082B00A4B1A6E42F001021A66D5
:100768001A6E02F001020092009A9A6D42F08052CD
:100778009A659B6D03F080530193019B02B070470B
:100788000010024000B589B0002303930493059339
:10079800069307930268134B9A4202D009B05DF89A
:1007A80004FB03F560431A6E42F480521A661A6E0F
:1007B80002F480520192019ADA6C42F00202DA6481
:1007C800DB6C03F002030293029B282303930223AA
:1007D8000493032306930523079303A9024801F012
:1007E800AFFDDBE7003001400004004802680E4B13
:1007F8009A4200D0704700B583B003F564431A6E7F
:1008080042F400621A661B6E03F400630193019BB5
:1008180000221146182001F0EBFE182001F01CFF01
:1008280003B05DF804FB00BF002C014000B589B09F
:100838000023039304930593069307930268144BCC
:100848009A4202D009B05DF804FB03F5E6339A6DCD
:1008580042F400329A659A6D02F400320192019ACC
:10086800DA6C42F00102DA64DB6C03F001030293F4
:10087800029B0C2303930223049303230693072369
:10088800079303A94FF0904001F05AFDDAE700BF43
:100898000044004010B4036A046A24F001040462AE
:1008A800846924F0F00444EA021223F00A030B439B
:1008B800826103625DF8044B704710B4036A23F049
:1008C800100303628469036A24F4704444EA023220
:1008D80023F0A00343EA0113826103625DF8044B2D
:1008E8007047836823F07003194341F00701816062
:1008F80070477047704770477047704710B5044697
:1009080003681A6912F0020F11D0DA6812F0020FA8
:100918000DD06FF002021A610123037703689B6907
:1009280013F0030F79D0FFF7E6FF0023237723683E
:100938001A6912F0040F12D0DA6812F0040F0ED000
:100948006FF004021A610223237723689B6913F46A
:10095800407F68D02046FFF7CEFF00232377236827
:100968001A6912F0080F12D0DA6812F0080F0ED0C8
:100978006FF008021A61042323772368DB6913F0F8
:10098800030F57D02046FFF7B6FF002323772368CD
:100998001A6912F0100F12D0DA6812F0100F0ED088
:1009A8006FF010021A61082323772368DB6913F4B8
:1009B800407F46D02046FFF79EFF00232377236819
:1009C8001A6912F0010F03D0DA6812F0010F3FD153
:1009D80023681A6912F0800F03D0DA6812F0800FCA
:1009E8003DD123681A6912F4807F03D0DA6812F0C7
:1009F800800F3BD123681A6912F0400F03D0DA68E0
:100A080012F0400F39D123681A6912F0200F03D071
:100A1800DA6812F0200F37D110BDFFF76BFF2046C0
:100A2800FFF76AFF81E72046FFF764FF2046FFF7DC
:100A380063FF92E72046FFF75DFF2046FFF75CFF64
:100A4800A3E72046FFF756FF2046FFF755FFB4E718
:100A58006FF001021A612046FFF74BFFB8E76FF00D
:100A680080021A61204600F050F9BAE76FF48072EC
:100A78001A61204600F04AF9BCE76FF040021A619B
:100A88002046FFF73AFFBEE76FF020021A612046C2
:100A980000F03AF9C0E700000368304A904212D0EB
:100AA800B0F1804F0FD0A2F5943290420BD002F5EE
:100AB8008062904207D002F58062904203D002F52E
:100AC8009432904203D123F070034A681343234AB7
:100AD80090421ED0B0F1804F1BD0A2F594329042C4
:100AE80017D002F58062904213D002F580629042DE
:100AF8000FD002F5943290420BD002F5406290423A
:100B080007D002F58062904203D002F580629042DD
:100B180003D123F44073CA68134323F080034A695E
:100B2800134303608B68C3620B6883620B4B984264
:100B38000FD003F5006398420BD003F54063984249
:100B480007D003F58063984203D003F58063984289
:100B580001D10B690363012343617047002C0140F5
:100B6800A8B110B5044690F83D305BB1022384F873
:100B78003D30211D2068FFF78FFF012384F83D30A9
:100B8800002010BD80F83C30FFF730FEEEE7012072
:100B9800704710B4846824F47F4442EA03230B436B
:100BA800234383605DF8044B7047000090F83C30A5
:100BB800012B73D010B50446012380F83C30022382
:100BC80080F83D3002689068354B034093600B68AD
:100BD800402B59D010D9702B3CD01BD8502B49D062
:100BE800602B30D1CA6849682068FFF766FE60212B
:100BF8002068FFF776FE26E0102B06D004D9202BBC
:100C080003D0302B01D01EE0EBB919462068FFF75E
:100C180068FE18E0B3F5805F0ED0B3F5005F12D11F
:100C2800CB684A6889682068FFF7B3FF2268936831
:100C380043F48043936006E02268936823F480338A
:100C480023F007039360012384F83D30002084F8E3
:100C58003C0010BDCB684A6889682068FFF799FF97
:100C68002268936823F4803323F0770343F07703F3
:100C78009360E8E7CA6849682068FFF70BFE5021CF
:100C88002068FFF72EFEDEE7CA6849682068FFF78C
:100C980001FE40212068FFF724FED4E702207047B8
:100CA8008800FEFF90F83C30012B28D030B4012397
:100CB80080F83C30022380F83D300268536895681C
:100CC800104CA24203D004F50064A24203D123F4DD
:100CD80070034C68234323F070030C68234325F00A
:100CE800800489682143536003689960012380F870
:100CF8003D30002380F83C30184630BC7047022055
:100D0800704700BF002C01407047704770470000D3
:100D18002DE9F04804460168836802691343426973
:100D28001343C26913430868A24A024013430B6085
:100D38002268536823F44053E1680B435360A16968
:100D480022689D4B9A4201D0236A1943936823F481
:100D580030630B4393602368984A934227D0984A9C
:100D6800934238D0974A93424ED0974A934261D0E3
:100D7800964A934274D0904A934200F08A80102594
:100D88008D4A934200F0AA80E369B3F5004F00F062
:100D98003581082D00F2BF81DFE815F07F0195014C
:100DA8009F01BD01AA01BD01BD01BD01B40102F54C
:100DB8005842D2F8882002F00302032A09D8DFE853
:100DC80002F0020481060125DAE70425D8E70825A0
:100DD800D6E71025D4E702F5E632D2F8882002F0EB
:100DE8000C020C2A0ED8DFE802F0070D0D0D090DD4
:100DF8000D0D6F0D0D0D0B000025C1E70425BFE794
:100E08000825BDE71025BBE702F5E432D2F88820B3
:100E180002F03002102A09D005D9202A56D0302AEB
:100E280006D10825ACE71AB90025A9E70425A7E7E4
:100E38001025A5E702F5E232D2F8882002F0C002B8
:100E4800402A09D005D9802A42D0C02A06D10825CF
:100E580096E71AB9002593E7042591E710258FE74F
:100E680002F5E032D2F8882002F44072B2F5807FB1
:100E78000BD007D9B2F5007F2CD0B2F5407F06D150
:100E880008257DE71AB900257AE7042578E71025B3
:100E980076E702F5C832D2F8882002F44062B2F54B
:100EA800806F0BD007D9B2F5006F15D0B2F5406F3F
:100EB80006D1082564E71AB9002561E704255FE72C
:100EC80010255DE702255BE7022559E7022557E76C
:100ED800022555E7022553E7022551E7082D00F2C0
:100EE8001D81DFE815F00C001B0114001B01110027
:100EF8001B011B011B0109004FF4004008E000F032
:100F080075FE28B90020D9E000F0ACFAF9E73048BE
:100F1800626802EB4203834200F20281B0EB023FB7
:100F280000F20081082D66D8DFE805F00565206528
:100F380030656565580000F059FE0025070E060269
:100F4800626850082B4616EB000B47F1000C584618
:100F58006146FFF735F903462846A3F540711D4A57
:100F6800914200F2E1802268D360A7E0560800258C
:100F78002B46DFF864B04FF0000C1BEB06004CF179
:100F88000001FFF71DF903462846E6E700F06AFA74
:100F98000025070E0602626850082B4616EB000B68
:100FA80047F1000C58466146FFF70AF90346284600
:100FB800D3E700BFF369FFEF00800040003801402D
:100FC8000044004000480040004C004000500040F1
:100FD8000024F400FFFC0F00000024F45008002750
:100FE80000252B4610F5000047F10001FFF7E8F84F
:100FF80003462846B1E701200023AEE7082D49D86B
:10100800DFE805F0051E2948344848483F0000F04D
:10101800EDFD6268530803EB4003B3FBF2F39BB2A8
:101028000020A3F110014FF6EF7291427ED89AB2D8
:1010380022F00F02C3F3420313432268D3603DE05A
:1010480000F0E6FD6268530803EB4003B3FBF2F3DC
:101058009BB20020E5E76268530803F1F47303F5D7
:101068009043B3FBF2F39BB20020DAE700F0FAF901
:101078006268530803EB4003B3FBF2F39BB2002012
:10108800CFE76268530803F58033B3FBF2F39BB2F2
:101098000020C6E701200023C3E700F0A7FD63682E
:1010A80000EB5302B2FBF3F292B20020A2F110015E
:1010B8004FF6EF7399423BD82368DA600022226624
:1010C8006266BDE8F08800F0A3FD636800EB530298
:1010D800B2FBF3F292B20020E8E763685A0802F51F
:1010E800740202F51052B2FBF3F292B20020DDE76F
:1010F80000F0B8F9636800EB5302B2FBF3F292B266
:101108000020D3E763685A0802F50042B2FBF3F205
:1011180092B20020CAE701200022C7E70120CDE7EC
:101128000120CBE70120C9E70120C7E70120C5E777
:101138000120C3E7436A13F0010F06D00268536821
:1011480023F40033816A0B435360436A13F0020FA0
:1011580006D00268536823F48033C16A0B43536096
:10116800436A13F0040F06D00268536823F48023FF
:10117800016B0B435360436A13F0080F06D00268F3
:10118800536823F40043416B0B435360436A13F0E5
:10119800100F06D00268936823F48053816B0B43C9
:1011A8009360436A13F0200F06D00268936823F413
:1011B8000053C16B0B439360436A13F0400F0AD08E
:1011C8000268536823F48013016C0B435360036C6B
:1011D800B3F5801F0BD0436A13F0800F06D0026866
:1011E800536823F40023816C0B43536070470268F3
:1011F800536823F4C003416C0B435360EBE72DE9BC
:10120800F04105460F4616469846069C2B68DB6952
:1012180037EA03030CBF01230023B3421DD1B4F105
:10122800FF3FF3D02CB100F0BFF8A0EB0800A042BC
:10123800ECD92A68136823F4D07313602A6893687A
:1012480023F001039360202385F8713085F872300C
:10125800002385F87030032000E00020BDE8F0810D
:1012680030B583B004460023436700F09DF8054677
:1012780023681B6813F0080F0ED123681B6813F04E
:10128800040F17D1202384F8713084F872300020BD
:1012980084F8700003B030BD6FF07E4300930346BE
:1012A80000224FF400112046FFF7A9FF0028E4D0E0
:1012B8000320EFE76FF07E4300932B4600224FF4A4
:1012C80080012046FFF79BFF0028DBD00320E1E7E1
:1012D80078B310B5044690F871300BB3242384F822
:1012E80071302268136823F0010313602046FFF76A
:1012F8000FFD012813D0636ABBB92268536823F431
:10130800904353602268936823F02A03936022680D
:10131800136843F0010313602046FFF7A1FF10BDD7
:1013280080F87030FFF782FAD8E72046FFF702FF0F
:10133800E3E701207047000010B50446094B186820
:10134800094BA3FB0030800901F092F908B1012094
:1013580010BD002221464FF0FF3001F049F900206E
:10136800F6E700BF00000020D34D621010B5094A0F
:10137800136843F480731360032001F027F90020F9
:10138800FFF7DAFF10B10124204610BD0446FFF72D
:10139800E1F9F9E700200240024A136801331360BB
:1013A800704700BFF8010020014B1868704700BF64
:1013B800F801002038B50446FFF7F6FF0546B4F1FA
:1013C800FF3F00D00134FFF7EFFF401BA042FAD3E4
:1013D80038BD000030B583B00546204B9B6D13F037
:1013E800805F0BD001F0A2F8B0F5007F17D0802DF8
:1013F8001FD82DD0702D2DD000211BE0174CA36DC8
:1014080043F08053A365A36D03F080530193019BC0
:1014180001F08CF8A36D23F08053A365E4E7802DD9
:1014280003D9A02D03D9022104E0002102E0012103
:1014380000E003210A4A136823F007030B431360F3
:10144800136803F007038B4206D0012003B030BDB8
:101458000221EFE70121EDE70020F7E70010024045
:1014680000200240314A9368D26802F0030213F068
:101478000C030AD00C2B06D0042B1FD0082B20D02D
:101488000020014610E0012AF6D1284A126812F01D
:10149800080F0CD1254AD2F89420C2F3032224491C
:1014A80051F8221043B100200C2B0DD070471F4A71
:1014B8001268C2F30312F2E70846F5E71D48002157
:1014C800F2E71D480021EFE7184BDA6802F0030243
:1014D800DB68C3F302130133022A0AD0032A1AD0A5
:1014E800B1FBF3F3114AD068C0F3062000FB03F008
:1014F80008E01048B0FBF3F30C4AD068C0F30620AC
:1015080000FB03F0094BDB68C3F3416301335B0065
:10151800B0FBF3F0CAE70848B0FBF3F3034AD0681E
:10152800C0F3062000FB03F0ECE700BF0010024008
:10153800383900080024F40000127A00002800F06E
:101548009082F0B583B00446AC4B9D6805F00C055D
:10155800DE6806F00306036813F0100F5DD0E5B1EE
:101568000C2D18D0A369002B00F0B780A34A13688C
:1015780043F001031360FFF717FF07469F4B1B68F3
:1015880013F0020F40F09680FFF70EFFC01B0228F1
:10159800F4D9032371E2012EE4D1984B1B6813F0B0
:1015A800020F03D0A369002B00F05E82206A934BE0
:1015B8001B6813F0080F5DD0904B1B6803F0F00315
:1015C80098425ED9FFF706FF002840F04F828B4B08
:1015D8001A6842F008021A601A6822F0F002216ABA
:1015E8000A431A605A6822F47F42E16942EA0122FA
:1015F8005A60FFF737FF814B9B68C3F30313804A98
:10160800D35C03F01F03D8407E4B18600020FFF71F
:1016180093FE0346002840F03082236813F0010F40
:101628007AD0082D6FD00C2D6BD06368B3F5803F4E
:1016380000F09180B3F5A02F00F093806F4B1A68EB
:1016480022F480321A601A6822F480221A606368D1
:10165800002B00F09380FFF7A7FE0746674B1B6837
:1016680013F4003F58D1FFF79FFEC01B6428F5D93B
:10167800032302E2614BD3F894301B0903F0F00313
:101688009EE75E4B1A6842F008021A601A6822F058
:10169800F002216A0A431A605A6822F47F42E1691B
:1016A80042EA01225A60206AFFF794FE0028A0D07F
:1016B8000123E2E1514B1A6842F008021A601A68E5
:1016C80022F0F002216A0A431A605A6822F47F4223
:1016D800E16942EA01225A609FE7484A136823F009
:1016E80001031360FFF760FE0746444B1B6813F0C5
:1016F800020F92D0FFF758FEC01B0228F5D903232A
:10170800BBE1032E91D13D4B1B6813F4003F03D07E
:101718006368002B00F0AC81236813F0020F4FD0F0
:10172800042D3CD00C2D38D0E368002B75D0334AFB
:10173800136843F480731360FFF736FE06462F4B99
:101748001B6813F4806F5FD1FFF72EFE801B022801
:10175800F5D9032391E1294A136843F480331360D0
:1017680075E703F18043A3F53C331A6842F48022FD
:101778001A601A6842F480321A6068E7FFF714FEAC
:1017880007461E4B1B6813F4003FC5D0FFF70CFE3D
:10179800C01B6428F5D903236FE1022EC4D1174B6F
:1017A8001B6813F4806F03D0E368002B00F062819C
:1017B800124A536823F0F853216943EA01635360DE
:1017C800236813F0080F53D06369002B39D00B4AF4
:1017D800D2F8943043F00103C2F89430FFF7E4FDE7
:1017E8000646064BD3F8943013F0020F40D1FFF7AA
:1017F800DBFD801B0228F4D903233EE100100240E0
:1018080020390008000000209E4A536823F0F8534E
:10181800216943EA01635360D2E79A4A136823F4C3
:1018280080731360FFF7C0FD0646964B1B6813F4E0
:10183800806FC5D0FFF7B8FD801B0228F5D90323B8
:101848001BE1904AD2F8943023F00103C2F8943097
:10185800FFF7AAFD06468B4BD3F8943013F0020F1E
:1018680006D0FFF7A1FD801B0228F4D9032304E169
:10187800236813F0040F7AD0824B9B6D13F0805FBE
:101888000BD1804B9A6D42F080529A659B6D03F0A4
:1018980080530193019B012600E000267A4B1B68C8
:1018A80013F4807F26D0A368012B37D0052B3DD0B9
:1018B800744BD3F8902022F00102C3F89020D3F89B
:1018C800902022F00402C3F89020A368002B3BD09C
:1018D800FFF76AFD07466B4BD3F8903013F0020F01
:1018E80044D1FFF761FDC01B41F288339842F2D919
:1018F8000323C2E0644A136843F480731360FFF75C
:1019080053FD0746604B1B6813F4807FCBD1FFF76C
:101918004BFDC01B0228F5D90323AEE0594AD2F883
:10192800903043F00103C2F89030CEE7554BD3F81E
:10193800902042F00402C3F89020D3F8902042F09F
:101948000102C3F89020C0E7FFF72EFD07464D4B74
:10195800D3F8903013F0020F08D0FFF725FDC01B15
:1019680041F288339842F2D9032386E066BBA36A22
:10197800002B00F081800C2D00F08280022B29D0F2
:10198800404B1A6822F080721A601B6813F0205FBF
:1019980004D13C4AD36823F00303D360394AD3689F
:1019A80023F0887323F48033D360FFF7FDFC0446EB
:1019B800344B1B6813F0007F51D0FFF7F5FC001B78
:1019C8000228F5D9032358E02E4A936D23F080535B
:1019D8009365CCE72B4A136823F080731360FFF7F5
:1019E800E3FC0546274B1B6813F0007F06D0FFF782
:1019F800DBFC401B0228F5D903233EE0236B5A1E6B
:101A0800636B1B0243EA0213A26B120943EA4243C7
:101A1800E26A1343E26B5208013A43EA4253226CEA
:101A28005208013A43EA4263164AD360136843F006
:101A380080731360D36843F08073D360FFF7B4FCFE
:101A48000446104B1B6813F0007F06D1FFF7ACFC6F
:101A5800001B0228F5D903230FE000230DE0002323
:101A68000BE0012318467047012306E0012304E038
:101A7800012302E0012300E00023184603B0F0BD73
:101A88000123FAE70010024000700040002800F02F
:101A98009A8070B504464E4B1B6803F007038B42CF
:101AA8000CD24B4A136823F007030B4313601368E7
:101AB80003F007038B4201D0012070BD0D46236857
:101AC80013F0010F39D06368032B09D0022B26D0FD
:101AD80063BB404A126812F0020F06D10120ECE7FE
:101AE8003C4A126812F0007F6FD03A498A6822F0A7
:101AF800030213438B60FFF757FC0646354B9B6880
:101B080003F00C036268B3EB820F16D0FFF74CFCAE
:101B1800801B41F288339842F0D90320CDE72D4A43
:101B2800126812F4003FE0D10120C6E7294A126882
:101B380012F4806FD9D10120BFE7236813F0020F98
:101B480006D0244A936823F0F003A1680B439360FE
:101B58001F4B1B6803F00703AB420CD91C4A1368E0
:101B680023F007032B431360136803F00703AB420A
:101B780001D00120A1E7236813F0040F06D0154A0D
:101B8800936823F4E063E1680B439360236813F0E0
:101B9800080F07D00F4A936823F46053216943EA7A
:101BA800C1039360FFF75EFC0A4B9B68C3F3031302
:101BB800094AD35C03F01F03D840084B1860002083
:101BC800FFF7BAFB79E701207047012075E700BFEE
:101BD80000200240001002402039000800000020C8
:101BE800014B1868704700BF0000002008B5FFF7D8
:101BF800F7FF054B9B68C3F30223044AD35C03F049
:101C08001F03D84008BD00BF00100240303900084B
:101C180008B5FFF7E5FF054B9B68C3F3C223044AE9
:101C2800D35C03F01F03D84008BD00BF001002407A
:101C380030390008F8B55A4BDB6813F0030F18D099
:101C4800574BDB6803F003030268934202D0012577
:101C58002846F8BD002A00F0A080514BDB68C3F38A
:101C6800021301334268934201D00125F0E70025B1
:101C78001AE00368022B59D0032B5ED0012B01D048
:101C880001250FE0464A126812F0020F61D0444D58
:101C9800EA6822F073024468013C43EA04131343E0
:101CA800EB600025002DD3D10F4604463C4A13684B
:101CB80023F080631360FFF777FB0646384B1B68F9
:101CC80013F0006F05D0FFF76FFB801B0228F5D9D2
:101CD8000325002DBCD1002F3DD131490B6923F4D8
:101CE8001F3323F44073A068E2681209520442EAE1
:101CF800002213430B612A4A136843F08063136080
:101D0800FFF752FB0646264B1B6813F0006F05D100
:101D1800FFF74AFB801B0228F5D90325002D97D130
:101D28001F4A1369A1690B43136191E71C4A1268A2
:101D380012F4806FABD10125B4E7194A126812F486
:101D4800003FA4D1164A126812F4802F9FD10125B2
:101D5800A8E70125A6E7012F0FD01148026922F054
:101D6800C06222F4FE42A16863695B08013B5B061E
:101D780043EA012313430361BDE70948026922F4DA
:101D8800C00222F4FE42A16823695B08013B5B059F
:101D980043EA012313430361ADE7012558E700BF78
:101DA80000100240F8B5514BDB6813F0030F18D050
:101DB8004E4BDB6803F003030268934202D001250F
:101DC8002846F8BD002A00F08E80484BDB68C3F334
:101DD800021301334268934201D00125F0E7002540
:101DE8001AE00368022B59D0032B5ED0012B01D0D7
:101DF80001250FE03D4A126812F0020F61D03B4DF9
:101E0800EA6822F073024468013C43EA041313436E
:101E1800EB600025002DD3D10F460446334A1368E2
:101E280023F080531360FFF7BFFA06462F4B1B6859
:101E380013F0005F05D0FFF7B7FA801B0228F5D929
:101E48000325002DBCD1002F3DD128494B6923F42F
:101E58001F3323F44073A068E2681209520442EA6F
:101E6800002213434B61214A136843F080531360E7
:101E7800FFF79AFA06461D4B1B6813F0005F05D161
:101E8800FFF792FA801B0228F5D90325002D97D178
:101E9800164A536961690B43536191E7134A126803
:101EA80012F4806FABD10125B4E7104A126812F41E
:101EB800003FA4D10D4A126812F4802F9FD101254A
:101EC800A8E70125A6E70948426922F0C06222F482
:101ED800FE42A16823695B08013B5B0643EA0123D4
:101EE80013434361BFE701256AE700BF00100240C2
:101EF8002DE9F04182B00446036813F4006F2FD037
:101F0800436EB3F5800F25D008D9B3F5000F10D074
:101F1800B3F5400F40F09980002610E0002B40F008
:101F2800948000210430FFF785FE06463EB137460F
:101F380018E05E4AD36843F48033D36000265B4AD6
:101F4800D2F8883023F44003616E0B43C2F888301E
:101F5800002707E000212030FFF724FF0646E5E7C9
:101F680000273E46236813F4805F15D0A36EB3F1B3
:101F7800807F7AD06CD9B3F1007F70D0B3F1407F05
:101F88007AD1002E7BD1494AD2F8883023F04073A9
:101F9800A16E0B43C2F88830236813F4003F00F0A9
:101FA8008E80424B9B6D13F0805F6AD13F4B9A6DD8
:101FB80042F080529A659B6D03F080530193019B18
:101FC8004FF001083A4A136843F480731360FFF72F
:101FD800EBF90546364B1B6813F4807F05D1FFF7F4
:101FE800E3F9401B0228F5D90326002E62D12F4BB6
:101FF800D3F8903013F4407316D0D4F884209A4262
:1020080012D02A4AD2F8903023F44073D2F89010B4
:1020180041F48031C2F89010D2F8901021F4803148
:10202800C2F89010C2F8903013F0010F2CD1002E96
:1020380040F043811D4AD2F8903023F44073D4F81D
:1020480084100B43C2F8903035E001273E4689E7FB
:1020580093B90021201DFFF7EDFD064691E7134ACD
:10206800D36843F48033D3608BE7002104F1200068
:10207800FFF798FE064684E701273E468CE7374679
:102088008AE74FF000089DE7FFF78EF90546074BF2
:10209800D3F8903013F0020FC9D1FFF785F9401B30
:1020A80041F288339842F2D90326C0E70010024073
:1020B800007000403746B8F1000F40F000812368F7
:1020C80013F0010F08D09D4AD2F8883023F003039B
:1020D800A16B0B43C2F88830236813F0020F08D0B5
:1020E800964AD2F8883023F00C03E16B0B43C2F810
:1020F8008830236813F0040F08D0904AD2F888304B
:1021080023F03003216C0B43C2F88830236813F0A6
:10211800080F08D0894AD2F8883023F0C003616CD0
:102128000B43C2F88830236813F0100F08D0834A95
:10213800D2F8883023F44073A16C0B43C2F888307E
:10214800236813F0200F08D07C4AD2F8883023F493
:102158004063E16C0B43C2F88830236813F4007FB6
:1021680008D0764AD2F8883023F44023E16D0B4337
:10217800C2F88830236813F4806F08D06F4AD2F809
:10218800883023F44013216E0B43C2F8883023684B
:1021980013F0400F08D0694AD2F8883023F440532E
:1021A800216D0B43C2F88830236813F0800F08D0E4
:1021B800624AD2F8883023F44043616D0B43C2F879
:1021C8008830236813F4807F08D05C4AD2F88830BE
:1021D80023F44033A16D0B43C2F88830236813F40D
:1021E800005F0FD0554AD2F8883023F04063E16E83
:1021F8000B43C2F88830E36EB3F1006F65D0B3F1DA
:10220800806F67D0236813F4002F0FD04B4AD2F8A1
:10221800883023F04063216F0B43C2F88830236F66
:10222800B3F1006F5ED0B3F1806F60D0236813F410
:10223800802F0FD0414AD2F8883023F04063616F75
:102248000B43C2F88830636FB3F1006F57D0B3F116
:10225800806F59D0236813F4804F0FD0374AD2F8D3
:10226800883023F04053A16F0B43C2F88830A36F26
:10227800B3F1805F50D0B3F1005F55D0236813F4F9
:10228800004F08D02D4AD2F8883023F08043E16F00
:102298000B43C2F88830236813F4803F09D0274ADB
:1022A800D2F8883023F00043D4F880100B43C2F8EA
:1022B8008830384602B0BDE8F0813746FBE61F4A51
:1022C800936D23F080539365F9E6D36843F4801344
:1022D800D36097E70121201DFFF7ACFC002891D0BF
:1022E80007468FE7D36843F48013D3609EE7012144
:1022F800201DFFF79FFC002898D0074696E7D36873
:1023080043F48013D360A5E70121201DFFF792FC59
:1023180000289FD007469DE70221201DFFF78AFC71
:102328000028ABD00746A9E7022104F12000FFF7F7
:1023380039FD0028A2D00746A0E700BF00100240E0
:10234800F0B482B0002341E0D0F82CC02CEA040C91
:10235800C6F3C0049C4044EA0C04C46286E0062428
:1023680000E00024B4403C430235664E46F8254060
:10237800654C2568D44304EA05064F6817F4803F86
:1023880001D042EA0506604D2E606D6804EA050634
:102398004F6817F4003F01D042EA05065A4D6E60B7
:1023A800AD6804EA05064F6817F4801F01D042EAB9
:1023B8000506554DAE60ED682C404E6816F4001FBA
:1023C80001D042EA0504504AD46001330A6832FA5F
:1023D80003F400F0938001249C402240F5D04D681E
:1023E800022D01D0122D10D1DE08083650F826C073
:1023F80003F00705AF000F25BD402CEA050C0D6959
:10240800BD4045EA0C0540F8265006685F000325E4
:10241800BD40ED4305EA060C4E6806F00306BE40D3
:1024280046EA0C0606604E6806F1FF3CBCF1010F57
:1024380003D9112E01D0122E11D1866805EA060C97
:10244800CE68BE4046EA0C068660466826EA040C5A
:102458004E68C6F300169E4046EA0C0646604E6873
:1024680006F0030CBCF1030F3FF46EAFC4682540BF
:102478008C68BC402C43C4604C6814F0805FA4D0C6
:10248800224C256E45F001052566246E04F00104F2
:102498000194019C9D08AE1C1A4C54F8267003F058
:1024A8000304A6000F24B44027EA0407B0F1904FB4
:1024B8003FF457AF164CA04216D004F58064A042F2
:1024C80014D004F58064A04212D004F58064A042C0
:1024D80010D004F58064A0420ED004F58064A042B8
:1024E8003FF43DAF07243DE701243BE7022439E7E9
:1024F800032437E7042435E7052433E702B0F0BCAA
:10250800704700BF00000140000401400010024075
:10251800000400480369194201D1002070470120D6
:1025280070470AB98162704781617047024B186829
:1025380000F4C060704700BF00700040B0F5007F35
:102548000FD01F4B1B6803F4C063B3F5806F34D002
:102558001B4A136823F4C06343F4806313600020AC
:102568007047174B1B6803F4C063B3F5007F22D094
:10257800134A136823F4C06343F400731360114BC8
:102588001A68322303FB02F30F4AA2FB03239B0CB6
:10259800013300E0013B0A4A526912F4806F01D00E
:1025A800002BF7D1064B5B6913F4806F01D1002033
:1025B800704703207047002070470020704700BF15
:1025C800007000400000002083DE1B43074AD368E8
:1025D80023F4E0631B041B0C000200F4E0601843C2
:1025E80040F0BF6040F40030D060704700ED00E07C
:1025F80030B4174BDB68C3F30223C3F10704042C80
:1026080028BF04241D1D062D18D9033B4FF0FF35A4
:1026180005FA04F421EA0401994005FA03F322EAD1
:102628000303194300280BDB0901C9B200F160401C
:1026380000F5614080F8001330BC70470023E5E7DF
:1026480000F00F000901C9B2024B1954F4E700BFAA
:1026580000ED00E014ED00E000F01F024009012346
:102668009340024A42F82030704700BF00E100E082
:102678000138B0F1807F0AD2064B5860064AF02133
:1026880082F823100020986007221A607047012002
:10269800704700BF10E000E000ED00E0F8B5054627
:1026A8000F4616461C462B689B6837EA03030CBF87
:1026B80001230023B34237D0B4F1FF3FF3D0FEF734
:1026C80073FE069BC01AA04201D2002CEBD12A68E7
:1026D800536823F0E00353606B68B3F5827F0BD037
:1026E800AB6AB3F5005F14D0012385F85D30002391
:1026F80085F85C30032018E0AB68B3F5004F02D0D2
:10270800B3F5806FECD12A68136823F04003136097
:10271800E6E72A68136823F4005313602A681368ED
:1027280043F400531360DFE70020F8BDF8B507460F
:102738000C4615461E4602E0B6F1FF3F0BD13A683B
:1027480093682340AB423BD0B4F5C06FF4D1002D61
:10275800F2D1137BF0E7FEF727FE069BC01AB042C2
:1027680001D2002EEBD13A68536823F0E00353609E
:102778007B68B3F5827F0BD0BB6AB3F5005F14D0DA
:10278800012387F85D30002387F85C30032018E0C8
:10279800BB68B3F5004F02D0B3F5806FECD13A684F
:1027A800136823F040031360E6E73A68136823F4DC
:1027B800005313603A68136843F400531360DFE76B
:1027C8000020F8BD70B582B004460D46164600924A
:1027D8000B4600224FF4C051FFF7A8FFB8B9009686
:1027E8002B46002280212046FFF758FFB8B90096F3
:1027F8002B4600224FF4C0612046FFF797FF03469F
:1028080050B1236E43F020032366032304E0236EB4
:1028180043F0200323660323184602B070BD236EDD
:1028280043F0200323660323F6E7002853D010B5AE
:1028380004460023836290F85D30002B40D00223C9
:1028480084F85D302268136823F040031360E3685E
:10285800B3F5E06F39D90022B3F5706F04D0B3F542
:10286800E06F01D00021A162216B21B9B3F5E06FBF
:102878002ED9022323636368A1680B4321690B43A4
:1028880061690B43A16901F400710B43E1690B43D2
:10289800216A0B43A06A216803430B60638B03F032
:1028A8000403616A0B43616B0B43E1680B432168C6
:1028B80013434B6000202066012384F85D3010BD6F
:1028C80080F85C30FDF75EFFB9E74FF48052C3E74C
:1028D80001232363CFE7012070472DE9F04182B03F
:1028E80090F85C40012C00F0E4801E4615468846AE
:1028F8000446012380F85C30FEF756FD074694F83D
:102908005D20D2B2012A09D00220012384F85D306B
:10291800002384F85C3002B0BDE8F081B8F1000F04
:1029280000F0B980002D00F0B880032384F85D30F2
:1029380000232366C4F83880A587E5872364A4F8B4
:102948004430A4F846302365E364A368B3F5004F28
:102958001CD023681A6812F0400F03D11A6842F09D
:1029680040021A60E368B3F5E06F33D963680BB1CE
:10297800012D1BD1A26B23681288DA60A36B023386
:10298800A363E38F013B9BB2E3870FE022681368E0
:1029980043F480431360DCE7FEF706FDC01BB0423A
:1029A80002D3B6F1FF3F7AD1002E7AD0E38F9BB2E3
:1029B800002B5BD023689A6812F0020FECD0A26B50
:1029C8001288DA60A36B0233A363E38F013B9BB2E7
:1029D800E387EBE763680BB1012D30D1E38F9BB23E
:1029E800012B0BD9A26B23681288DA60A36B023320
:1029F800A363E38F023B9BB2E38720E0A26B2368CB
:102A080012781A73A36B0133A363E38F013B9BB264
:102A1800E38714E0A36B1B781373A36B0133A363E1
:102A2800E38F013B9BB2E38709E0FEF7BDFCC01BC7
:102A3800B04202D3B6F1FF3F35D1002E35D0E38F37
:102A48009BB29BB12268936813F0020FEDD0E38F1D
:102A58009BB2012BDED9A36B1B88D360A36B023317
:102A6800A363E38F023B9BB2E387E8E73A4631462C
:102A78002046FFF7A7FE08B120232366A36833B9D1
:102A880001932368DA6801929B680193019B236E86
:102A98006BB9002039E7012037E7012035E703202B
:102AA80033E7032031E703202FE703202DE7012038
:102AB8002BE702202FE700000F49D1F8883043F4B4
:102AC8007003C1F888300D4B1A6842F001021A6091
:102AD800002098601A6822F0A85222F410221A6086
:102AE8004FF48052DA601A6822F480221A609861E2
:102AF8004FF000638B60704700ED00E0001002406B
:102B080000B583B002A901F8010D4FF47A730122D0
:102B18000248FFF7E2FE03B05DF804FB1C01002049
:102B280008B501224FF480714FF09040FFF7F9FC8F
:102B3800C820FEF73FFC00224FF480714FF0904010
:102B4800FFF7EFFCC820FEF735FC01224FF4807137
:102B58004FF09040FFF7E5FCC820FEF72BFC08BDBE
:102B680038B5054600224FF480614FF09040FFF7DA
:102B7800D8FC074C002210212046FFF7D2FC28463B
:102B8800FFF7BEFF012210212046FFF7CAFC38BD1F
:102B98000004004838B5054601224FF480614FF023
:102BA8009040FFF7BEFC074C002210212046FFF79B
:102BB800B8FC2846FFF7A4FF012210212046FFF7A2
:102BC800B0FC38BD00040048F8B507460D46164667
:102BD8001C464420FFF7C4FFC7F3C700FFF7DAFF1E
:102BE800C6F3C700FFF7D6FF4520FFF7B9FFE8B2E5
:102BF800FFF7D0FF280AFFF7CDFFE0B2FFF7CAFFC3
:102C0800200AFFF7C7FFF8BD38B505460C464E2029
:102C1800FFF7A6FFC5F3C700FFF7BCFF4F20FFF77C
:102C28009FFFE0B2FFF7B6FF200AFFF7B3FF38BDFA
:102C380008B502E06420FEF7BDFB4FF4806103484D
:102C4800FFF768FC0128F5D008BD00BF0004004864
:102C580008B52220FFF784FFC420FFF79BFF202040
:102C6800FFF77EFFFF20FFF77BFFFFF7E1FF08BDBF
:102C780038B50546FFF754FF0120FFF771FF2720FD
:102C8800FFF788FF0120FFF785FF0020FFF782FF8D
:102C98000C20FFF765FFD720FFF77CFFD620FFF752
:102CA80079FF9D20FFF776FF2C20FFF759FFA8201A
:102CB800FFF770FF3A20FFF753FF1A20FFF76AFF6C
:102CC8003B20FFF74DFF0820FFF764FF1120FFF7B7
:102CD80047FF0320FFF75EFF3220FFF741FF002484
:102CE80004E0285DFFF756FF0134A4B21D2CF8D983
:102CF800002038BD38B54FF494738022002108466F
:102D0800FFF762FF002508E0FF20FFF743FF0134CB
:102D1800A4B20F2CF8D90135ADB2B5F5947F08D21D
:102D280029460020FFF770FF2420FFF719FF002431
:102D3800EFE7FFF78DFF38BD70B506464FF4947383
:102D4800802200210846FFF73FFF00250AE004EB38
:102D58000513F05CFFF71EFF0134A4B20F2CF6D95F
:102D68000135ADB2B5F5947F08D229460020FFF7AA
:102D78004BFF2420FFF7F4FE0024EFE7FFF768FF7E
:102D880070BD000010B4104C206021816281BDF834
:102D98000400A08111F0070F0DD1CC080A48448225
:102DA8008282C3810024048243B1B42B06D0064B2F
:102DB8009A80D98005E0CC080134EFE7024B99806E
:102DC800DA805DF8044B7047FC010020014B186065
:102DD800704700BFFC0100203A4B9B8883426FD3A9
:102DE800384BDB888B426BD330B4364BDB895A2B9C
:102DF80017D00CD9B42B1CD0B3F5877F43D1314BF6
:102E08005B891B1A9BB2013B084699B201E0002B73
:102E180039D12C4B1B8A032B35D8DFE803F01C165D
:102E2800363D284B1B895B1A9BB2013B014698B281
:102E3800EFE7244C2389181A80B2013880B26389DD
:102E4800591A89B2013989B2E3E71E4B1B89181A4E
:102E580080B2013880B21B4B1B89834213D3194BB4
:102E68005B898B420FD3C0F3CF03164C658A05FBF1
:102E780001312468655CDAB100F00700802343FA69
:102E880000F02843605430BC70470E4B5B89591AD8
:102E980089B2013989B2DEE70A4C2389181A80B24F
:102EA800013880B26389591A89B2013989B2D2E7E7
:102EB80000F007038020184125EA00006054E2E78B
:102EC800704700BFFC01002010B400240CE002FB96
:102ED80004320A490968885401339BB2074A528A66
:102EE8009A42F4D80134A4B2044B9B8AA34201D974
:102EF8000023F3E75DF8044B704700BFFC01002096
:102F08002DE9F84381460D4616469846BDF82070CF
:102F18000AE03A4629462046FFF75EFF0134A4B28C
:102F2800B442F6D30135ADB2454501D24C46F7E778
:102F3800BDE8F8832DE9F04F83B02F4CA488844274
:102F480057D32D4CE4888C4253D31F4601920E462A
:102F580005469DF83030012B2ED04FF0000843E095
:102F680009F101090FFA89F9CB46B8464FEA470A31
:102F78000AF1FF3AD1453CDA002423465445EFDAFA
:102F880005EB0B02A2EB0802002AE9DB3344A3EBB2
:102F98000803002BE4DB05EB090080B2BBB2A4B246
:102FA800A11989B2C91AC01A019A89B280B2FFF769
:102FB80013FF013424B2E0E74FF00009D4E705EB32
:102FC800080080B29CB2A11989B201390138019A6E
:102FD80089B280B2FFF700FF631C1BB24B45EEDBE2
:102FE80008F101080FFA88F8B946B84501DA002354
:102FF800F4E703B0BDE8F08FFC0100202DE9F04FA5
:1030080089B00E46914619460493BDF848200392AC
:103018009DF84C809DF850200292344B9B88834247
:1030280061D30546314AD288B2425CD34B455AD364
:103038008A4258D3A9EB000ABAF1000FB8BFCAF107
:10304800000A8B1B002BB8BF5B420593C3F1000B32
:1030580048450BD201230693049B9E420AD20123C2
:103068000793059BAAEB0307002423E04FF0FF33E7
:103078000693F1E74FF0FF330793F2E7012300933C
:10308800029B039A31462846FFF754FFBBEB470FD4
:1030980006DC4D4527D0059BFF1A069B1D44ADB2A3
:1030A800BAEB470F06DB049B9E421CD05744079B94
:1030B8001E44B6B20134E4B2B8F1010FDED10C4BB4
:1030C800A3FB04235B0803EB4303E31A13F0FF0F8E
:1030D800D4D101230093029BFF2231462846FFF7F3
:1030E80029FF0024D2E709B0BDE8F08FFC010020D9
:1030F800ABAAAAAA2DE9F04784B00C461F46BDF832
:1031080030809DF834109DF838902A4B9B88834274
:103118004DD305461646274AD288A24247D3B34222
:1031280045D3BA4243D300293FD1CDF808904FF098
:10313800000ACDF804A0CDF8008023463246214687
:10314800FFF75CFFCDF80890CDF804A0CDF800801B
:103158003B462A4621462846FFF750FFCDF80890FF
:10316800CDF804A0CDF800802346324639463046D3
:10317800FFF744FFCDF80890CDF804A0CDF8008003
:103188003B462A4639463046FFF738FF0FE0CDF870
:10319800089000230193CDF800802346324621464B
:1031A8002846FFF72BFF0134A4B2BC42EFD304B08A
:1031B800BDE8F087FC0100202DE9F84FBDF8288014
:1031C800BDF82CB0304CA48884425AD32E4CE488E5
:1031D8008C4256D31F468A468146203ADD8805FB35
:1031E80002F29D8815F0070318BF012303EBD503EE
:1031F8003D6803FB025500263EE02A7804F00701EB
:1032080080230B411A4212D006EB0A0104EB090095
:103218005A4689B280B2FFF7DFFD08E006EB0A01E3
:1032280004EB0900424689B280B2FFF7D5FD04F0ED
:103238000703072B18D00134A4B2BB88A34215D9C1
:10324800B8F1FF0FD9D02A7804F0070180230B4189
:103258001A42E3D006EB0A0104EB09005A4689B288
:1032680080B2FFF7B9FDE2E70135E4E713F0070F95
:1032780000D001350136B6B2FB88B34201D900242B
:10328800DBE7BDE8F88F00BFFC0100202DE9F04F17
:1032980083B01D46BDF830A0BDF834B0194B9B88EB
:1032A80083422BD3804689461646164BDB888B42D1
:1032B80024D30F4604460CE0CDF804B0CDF800A0A6
:1032C8002B4639462046FFF777FF0136AB881C446A
:1032D800A4B2327892B1AB8823440A4989888B42D8
:1032E80003DDEB881F44BFB24446EB883B440549E5
:1032F800C9888B42E0DD4F464446DDE703B0BDE8B0
:10330800F08F00BFFC01002070B584B0044612B3F2
:1033180000EB800300EB43035D00ADB205F1180339
:103328009BB2A91C89B202200290012201920026B8
:1033380000966E22FFF7DEFE174B1B6853F8242019
:10334800E91CFF2301930096144B89B20320FFF771
:103358009DFF04B070BD00EB800300EB43035D00EC
:10336800ADB205F118039BB2A91C89B202200290E4
:103378000026019600966E22FFF7BCFE064B1B68DE
:1033880053F82420E91C0196FF230093034B89B2CC
:103398000320FFF77BFFDCE79400002004000020F7
:1033A80010B51348FFF764FCFF20FFF78DFD0024DC
:1033B80009E0012200212046FFF7A6FF0D4B01225C
:1033C80043F824200134022C0DDC0B4B1B68A3426C
:1033D800EFD0002211462046FFF796FF054B00224A
:1033E80043F82420EEE7054B1868FFF7A5FC10BD4D
:1033F80088390008BC000020D4000020D00000203C
:1034080008B50B4B01221A6000230A4A13600A4AC6
:1034180013600C2000F0EAF9084B1860084B0360B1
:10342800084B4360084B8360FFF7BAFF08BD00BF35
:10343800D4000020B80000201801002094000020CB
:103448008048000888480008904800082DE9F041A5
:1034580084B00746904600EB800300EB43035C0012
:10346800A4B2A51CADB204F11806B6B2FF230093AE
:1034780033466E2229460220FFF742FDB8F1000FBD
:103488001DD002200290012301934FF00008CDF8CF
:10349800008033466E222946FFF72CFE154B1B6829
:1034A80053F82720E11CFF230193CDF80080124B2D
:1034B80089B20320FFF7EAFE04B0BDE8F0810220DC
:1034C8000290CDF80480CDF8008033466E2229465C
:1034D800FFF710FE074B1B6853F82720E11CCDF8B7
:1034E8000480FF230093044B89B20320FFF7CEFE2C
:1034F800E2E700BF940000200400002010B500247B
:1035080013E0154B53F8243023B1134B012243F831
:10351800242009E0012200212046FFF797FFF4E765
:103528000D4B002243F824200134022C0EDC0B4BF7
:103538001B68A342E5D0084B53F82430012BEFD188
:10354800002211462046FFF781FFE9E7044B18687F
:10355800FFF7F2FB10BD00BFBC000020D400002024
:10356800D000002010B582B01448FFF781FBFFF7A8
:10357800C1FB4FF4FA70FDF71DFF4FF4945000F0B3
:1035880035F90F4B1860B0B1FF2400944FF48773DE
:103598004FF494728021FFF7F5FB094B1868FFF789
:1035A80015FC2046FFF790FC0123064A1360064AE3
:1035B8001360FFF725FF02B010BD00BF683900088F
:1035C800D0000020C8000020B400002008B50F4B30
:1035D8001B68012B0AD013DB042B11DC0B4B1A6878
:1035E8000B4B1A600B4B00221A6008BD084B1B6876
:1035F800012B02D0FFF7D4FEF0E7FFF77FFFEDE7DE
:10360800FFF7CEFE014B01221A60E7E7C800002051
:10361800B40000201801002008B501214FF09040A7
:10362800FEF778FFE8B9414B1B68632B15DD404B6B
:103638001B68404A1268934202DD013B3C4A136012
:103648003D4B01221A60394BA2F259221A603B4BBA
:103658003B4A13603B4A136008BD0133334A136089
:10366800F5E702214FF09040FEF754FFE8B9344BDC
:103678001B68632B15DD2E4B1B68334A1268934277
:1036880002DA01332A4A13602B4B01221A602C4BB1
:10369800A2F259221A60294B244A1360294A13605E
:1036A800DAE70133264A1360F5E710214FF090401E
:1036B800FEF730FFA8B9234B1B68632B0DDD0123F0
:1036C800224A13601C4A13601E4B1C4A1A601B4B8B
:1036D800164A13601A4A1360BEE70133194A136089
:1036E800F5E7154B00221A60104B1B68934210DD5A
:1036F8000E4B1A60124B1B68002B0EDD104B00227C
:103708001A60104B1B68002B0BDD0E4B00221A6051
:10371800A2E70133054A1360ECE70133084A136056
:10372800EFE70133074A136096E700BFA4000020C3
:10373800D4000020A000002018010020A8FDFFFFF1
:10374800980000209C0000200C000020B8000020F9
:10375800DFF834D0002103E00C4B5B5843500431B0
:103768000B480C4B42189A42F6D30B4A02E000234E
:1037780042F8043B094B9A42F9D3FFF79DF900F050
:1037880011F8FCF7B7FFFEE700800120B0480008F9
:103798000000002078000020780000201802002097
:1037A800FEE7000070B50D4E0D4CA41BA4100025BB
:1037B800A54209D10B4E0C4C00F0A2F8A41BA41092
:1037C8000025A54205D170BD56F82530984701352A
:1037D800EEE756F8253098470135F2E7A04800088B
:1037E800A0480008A0480008A4480008024B014669
:1037F800186800F00BB800BF100000200244034610
:10380800934200D1704703F8011BF9E770B5CD1C4E
:1038180025F0030508350C2D38BF0C25002D06466C
:1038280001DBA94203D90C233360002070BD00F0EE
:1038380057F8214A1468214691B9204C23681BB9CE
:10384800304600F03DF820602946304600F038F850
:10385800431C24D10C233360304600F042F8E4E7DF
:103868000B685B1B18D40B2B0FD90B60CD50CC18F1
:10387800304600F036F804F10B00231D20F0070055
:10388800C31AD3D05A42E250D0E78C424B6816BFD5
:10389800636013600C46EBE70C464968CCE7C41C30
:1038A80024F00304A04205D0211A304600F008F89D
:1038B8000130CFD02560DBE7A8000020AC00002055
:1038C80038B5064C002305460846236000F00AF880
:1038D800431C02D1236803B12B6038BD14020020B9
:1038E80070477047044A05491368002B08BF0B4608
:1038F8001844106018467047B000002018020020D5
:10390800F8B500BFF8BC08BC9E467047F8B500BFC4
:08391800F8BC08BC9E46704794
:10392000000000000000000001020304060708096F
:103930000000000001020304A0860100400D030006
:10394000801A060000350C0040420F0080841E00E3
:1039500000093D0000127A000024F40000366E01D8
:103960000048E801006CDC0202020111121222225E
:10397000666969595899998800000000F8B4135194
:1039800035515119010000001018180818180800C6
:1039900000000000000000000000000013144412AA
:1039A0000000000000000000000000000000000017
:1039B0000000000000000000000000000000000007
:1039C00000000000000000000000000000000000F7
:1039D00000000700070007000700070007000700B6
:1039E00002000200000000000700070000000000C5
:1039F0000000000000000000000000001CE01CE0CF
:103A00001CE00840084008400000000000000000E2
:103A100000000000000000000000000000000000A6
:103A20000CC00CC00CC00CC00CC03FF03FF00CC070
:103A30000CC03FF03FF00CC00CC00CC00CC00CC060
:103A400000000000000000000300030007E00FE09A
:103A5000186018001F000FC000E0186018601FC039
:103A60001F800300030003000000000000000000AE
:103A700000001C002200220022001C6001E00F80D8
:103A80003C0031C002200220022001C000000000E2
:103A9000000000000000000000000000000003E043
:103AA0000FE00C000C0006000F301FF019E018C0EA
:103AB0001FF007B000000000000000000000000040
:103AC000000000000380038003800100010001006A
:103AD00000000000000000000000000000000000E6
:103AE0000000000000000000000000C000C00180D5
:103AF00001800180030003000300030003000300B2
:103B000001800180018000C000C0000000000000B2
:103B100000000C000C000600060006000300030075
:103B200003000300030003000600060006000C006B
:103B30000C00000000000000000003000300030070
:103B40001B601FE0078007800FC00CC00000000052
:103B50000000000000000000000000000000000065
:103B600000000000000003000300030003003FF01A
:103B70003FF003000300030003000000000000000A
:103B80000000000000000000000000000000000035
:103B900000000000000000000000000000000380A2
:103BA00003000300060006000400000000000000FF
:103BB00000000000000000000000000000003FE0E6
:103BC0003FE00000000000000000000000000000D6
:103BD00000000000000000000000000000000000E5
:103BE0000000000000000000000000000000038052
:103BF00003800380000000000000000000000000BF
:103C00000060006000C000C000C0018001800300AF
:103C10000300060006000C000C000C001800180041
:103C2000000000000000000000000F801FC018C04E
:103C3000306030603060306030603060306018C0BC
:103C40001FC00F8000000000000000000000000006
:103C5000000003001F001F00030003000300030017
:103C600003000300030003001FE01FE0000000004A
:103C7000000000000000000000000F801FC038E0BE
:103C80003060006000C00180030006000C001800D6
:103C90003FE03FE0000000000000000000000000E6
:103CA00000000F803FC030E0006000E007C007C0A8
:103CB00000E00060006060E07FC03F800000000026
:103CC0000000000000000000000001C003C003C0AD
:103CD00006C00CC00CC018C030C03FE03FE000C0C0
:103CE00003E003E00000000000000000000000000E
:103CF00000001FC01FC0180018001F801FC018E060
:103D000000600060006030E03FC01F8000000000E5
:103D10000000000000000000000003E00FE01E00B3
:103D20001800380037803FC038E03060306018E05D
:103D30001FC007800000000000000000000000001D
:103D400000003FE03FE03060006000C000C000C005
:103D500001800180018003000300030000000000D7
:103D6000000000000000000000000F801FC038E0CD
:103D7000306038E01FC01FC038E03060306038E08D
:103D80001FC00F80000000000000000000000000C5
:103D900000000F001FC038C03060306038E01FE006
:103DA0000F6000E000C003C03F803E000000000044
:103DB0000000000000000000000000000000000003
:103DC00000000380038003800000000000000380E7
:103DD00003800380000000000000000000000000DD
:103DE0000000000000000000000001C001C001C090
:103DF000000000000000038003000600060004002D
:103E00000000000000000000000000000000003082
:103E100000F003C007001C0078001C00070003C06E
:103E200000F0003000000000000000000000000072
:103E3000000000000000000000007FF07FF00000A4
:103E400000007FF07FF00000000000000000000094
:103E50000000000000000000000000000000300032
:103E60003C000F00038000E0007800E003800F00BA
:103E70003C003000000000000000000000000000D6
:103E8000000000000F801FC018601860006001C0B3
:103E9000038003000000000007000700000000008E
:103EA0000000000000000000000003800C800840BB
:103EB0001040104011C012401240124011C01000BA
:103EC000080008400780000000000000000000001B
:103ED000000000001F801F80038006C006C00CC0C9
:103EE0000C601FE01FE03030787878780000000028
:103EF0000000000000000000000000003F803FC004
:103F00001860186018E01FC01FE0187018301830D3
:103F10003FF03FE000000000000000000000000053
:103F20000000000007B00FF01C7038303000300087
:103F30003000300038301C700FE007C00000000077
:103F40000000000000000000000000007F807FC033
:103F500030E030703030303030303030307030E081
:103F60007FC07F8000000000000000000000000013
:103F7000000000003FF03FF01830183019801F801B
:103F80001F801980183018303FF03FF0000000000B
:103F90000000000000000000000000003FF03FF0C3
:103FA0001830183019801F801F80198018001800E1
:103FB0003F003F0000000000000000000000000083
:103FC0000000000007B01FF01870303030003000E3
:103FD00031F831F8303018301FF007C00000000011
:103FE0000000000000000000000000003CF03CF079
:103FF0001860186018601FE01FE0186018601860F3
:104000003CF03CF000000000000000000000000058
:10401000000000001FE01FE0030003000300030096
:1040200003000300030003001FE01FE00000000086
:1040300000000000000000000000000003F803F88A
:10404000006000600060006030603060306030E030
:104050003FC00F80000000000000000000000000D2
:10406000000000003EF83EF818E019801B001F0019
:104070001D8018C018C018603E783E38000000004F
:104080000000000000000000000000003F003F00B2
:104090000C000C000C000C000C000C300C300C3030
:1040A0003FF03FF0000000000000000000000000B2
:1040B000000000007878787838703CF034B037B081
:1040C00037B03330333030307CF87CF800000000FB
:1040D00000000000000000000000000039F03DF08A
:1040E0001C601E601E601B601B6019E019E018E078
:1040F0003EE03E6000000000000000000000000004
:104100000000000007800FC01CE0387030303030F5
:104110003030303038701CE00FC0078000000000E5
:104120000000000000000000000000003FC03FE071
:1041300018701830183018701FE01FC018001800D1
:104140003F003F00000000000000000000000000F1
:104150000000000007800FC01CE0387030303030A5
:104160003030303038701CE00FC0078007B00FF0DF
:104170000CE0000000000000000000003FC03FE035
:104180001870183018701FE01FC018E01860187001
:104190003E383E1800000000000000000000000053
:1041A000000000000FB01FF03870303038001F8062
:1041B00007E00070303038703FE037C0000000008A
:1041C0000000000000000000000000003FF03FF091
:1041D00033303330333003000300030003000300A7
:1041E0000FC00FC000000000000000000000000031
:1041F000000000003CF03CF0186018601860186087
:104200001860186018601CE00FC0078000000000F4
:1042100000000000000000000000000078F078F0CE
:104220003060306018C018C00D800D800D80070010
:104230000700070000000000000000000000000070
:10424000000000007C7C7C7C3018339833983398D5
:1042500036D816D01C701C701C701830000000007E
:1042600000000000000000000000000078F078F07E
:10427000306018C00D80070007000D8018C0306046
:1042800078F078F00000000000000000000000005E
:10429000000000003CF03CF018600CC00780078074
:1042A00003000300030003000FC00FC00000000064
:1042B0000000000000000000000000001FE01FE000
:1042C000186018C001800300030006000C6018602D
:1042D0001FE01FE0000000000000000000000000E0
:1042E000000003C003C00300030003000300030039
:1042F000030003000300030003000300030003C0E6
:1043000003C0000000000000180018000C000C00A2
:104310000C0006000600030003000180018000C0BD
:1043200000C000C00060006000000000000000004D
:1043300000000F000F000300030003000300030050
:1043400003000300030003000300030003000F0049
:104350000F000000000000000000020007000D80B8
:1043600018C03060202000000000000000000000A5
:10437000000000000000000000000000000000003D
:10438000000000000000000000000000000000002D
:10439000000000000000000000000000000000001D
:1043A00000000000FFFCFFFC000004000300008090
:1043B00000000000000000000000000000000000FD
:1043C00000000000000000000000000000000000ED
:1043D000000000000000000000000FC01FE00060AF
:1043E0000FE01FE0386030E03FF01F700000000079
:1043F00000000000000000000000700070003000AD
:10440000300037803FE03860303030303030386056
:104410007FE0778000000000000000000000000046
:104420000000000000000000000007B01FF018307E
:1044300030303000300038301FF00FC00000000076
:10444000000000000000000000000070007000305C
:10445000003007B01FF01870303030303030387016
:104460001FF807B800000000000000000000000076
:104470000000000000000000000007801FE018603E
:104480003FF03FF0300018301FF007C00000000080
:104490000000000000000000000003F007F006002C
:1044A00006001FE01FE006000600060006000600EA
:1044B0001FE01FE0000000000000000000000000FE
:1044C0000000000000000000000007B81FF818708E
:1044D00030303030303018701FF007B000300070CE
:1044E0000FE00FC000000000000038003800180086
:1044F00018001BC01FE01C6018601860186018606E
:104500003CF03CF000000000000000000000000053
:10451000000003000300000000001F001F00030054
:1045200003000300030003001FE01FE00000000081
:104530000000000000000000000003000300000075
:1045400000001FC01FC000C000C000C000C000C0ED
:1045500000C000C000C001C03F803F00000000005C
:10456000000038003800180018001BE01BE01B009A
:104570001E001E001B00198039F039F000000000F9
:10458000000000000000000000001F001F000300EA
:104590000300030003000300030003000300030003
:1045A0001FE01FE00000000000000000000000000D
:1045B000000000000000000000007EE07FF03330CB
:1045C00033303330333033307BB87BB800000000F9
:1045D00000000000000000000000000000000000DB
:1045E00000003BC03FE01C60186018601860186055
:1045F0003CF03CF000000000000000000000000063
:104600000000000000000000000007801FE01860AC
:1046100030303030303018601FE00780000000007C
:10462000000000000000000000000000000000008A
:10463000000077807FE038603030303030303860D4
:104640003FE03780300030007C007C00000000003C
:104650000000000000000000000007B81FF81870FC
:1046600030303030303018701FF007B0003000307C
:1046700000F800F80000000000000000000000004A
:1046800000003CE03DF00F300E000C000C000C0070
:104690003FC03FC00000000000000000000000001C
:1046A0000000000000000000000007E01FE01860AC
:1046B0001E000FC001E018601FE01F800000000016
:1046C0000000000000000000000000000C000C00D2
:1046D0000C003FE03FE00C000C000C000C000C3024
:1046E0000FF007C000000000000000000000000004
:1046F0000000000000000000000038E038E0186012
:1047000018601860186018E01FF00F7000000000BB
:104710000000000000000000000000000000000099
:10472000000078F078F0306018C018C00D800D805F
:10473000070007000000000000000000000000006B
:104740000000000000000000000078F078F0326007
:10475000326037E01DC01DC018C018C00000000046
:104760000000000000000000000000000000000049
:1047700000003CF03CF00CC00780030007800CC038
:104780003CF03CF0000000000000000000000000D1
:104790000000000000000000000078F078F03060B9
:1047A00018C018C00D800F800700060006000C001E
:1047B0007F007F00000000000000000000000000FB
:1047C00000001FE01FE018C00180030006000C601D
:1047D0001FE01FE0000000000000000000000000DB
:1047E000000001C003C00300030003000300030036
:1047F00007000E000700030003000300030003C0CE
:1048000001C00000000000000000030003000300DE
:104810000300030003000300030003000300030080
:104820000300030003000300030000000000000079
:1048300000001C001E000600060006000600060020
:1048400007000380070006000600060006001E00A1
:104850001C0000000000000000000000000000003C
:10486000000000000E003F3033F001E000000000C7
:104870000000000000000000000000000000000038
:104880004F70656E00000000436F6E6E65637400CC
:084890004F7074696F6E730034
:0848980060B9FF7F0100000080
:0848A000AD010008000000005A
:0848A800890100080000000076
:1048B00000093D00A83900080E00140002000000A5
:1048C00014000020000000000000000000000000B4
:1048D00000000000000000000000000000000000D8
:1048E00000000000000000000000000000000000C8
:1048F00000000000000000000000000000000000B8
:1049000000000000000000000000000000000000A7
:104910000000000000000000000000000000000097
:0849200000000000000000008F
:04000005080037595F
:00000001FF
