:020000040800F2
:100000000080012051360008F5090008F7090008B2
:10001000F9090008FB090008FD09000800000000BC
:10002000000000000000000000000000FF090008C0
:10003000010A000800000000030A0008050A000881
:10004000A1360008A1360008A1360008A136000834
:10005000A1360008A1360008A1360008A136000824
:10006000A1360008A1360008A1360008A136000814
:10007000A1360008A1360008A1360008A136000804
:10008000A1360008A1360008A1360008A1360008F4
:10009000A1360008A1360008A1360008A1360008E4
:1000A000A1360008A1360008A1360008A1360008D4
:1000B000A1360008A1360008A1360008A1360008C4
:1000C000A1360008A1360008A1360008A1360008B4
:1000D000A1360008A1360008A1360008A1360008A4
:1000E000A1360008A1360008A1360008A136000894
:1000F000A1360008A1360008A1360008A136000884
:10010000A1360008A1360008A1360008A136000873
:10011000A1360008A1360008A1360008A136000863
:10012000A1360008A1360008A1360008A136000853
:10013000A1360008A1360008A1360008A136000843
:10014000A1360008A1360008A1360008A136000833
:10015000A1360008A1360008A1360008A136000823
:10016000A1360008A1360008A1360008A136000813
:10017000A1360008A1360008A136000800000000E2
:08018000A1360008A1360008B9
:1001900010B5054C237833B9044B13B10448AFF3C1
:1001A00000800123237010BD8000002000000000AB
:1001B0001846000808B5034B1BB103490348AFF3C9
:1001C000008008BD000000008400002018460008E0
:1001D00001F0FF01102A2BDB10F0070F08D010F8F8
:1001E000013B013A8B422DD010F0070F42B3F6D1FC
:1001F000F0B441EA012141EA014122F007047FF015
:1002000000070023F0E80256083C85EA010586EA6B
:10021000010685FA47F5A3FA87F586FA47F6A5FAA7
:1002200087F68EB9EED1F0BC01F0FF0102F00702B3
:1002300032B110F8013B013A83EA010313B1F8D15E
:100240000020704701387047002D06BF354603383F
:10025000073815F0010F07D1013015F4807F02BF78
:10026000013015F4C03F0130F0BC0138704700BFC9
:1002700053B94AB9002908BF00281CBF4FF0FF310D
:100280004FF0FF3000F072B9ADF1080C6DE904CE0B
:1002900000F006F8DDF804E0DDE9022304B0704761
:1002A0002DE9F047089E04468846002B4BD18A4230
:1002B000154667D9B2FA82F24AB1C2F1200701FAB3
:1002C00002F320FA07F7954047EA030894404FEA03
:1002D000154E230CB8FBFEF71FFA85FC0EFB1788A2
:1002E00043EA084307FB0CF1994209D9EB1807F1DF
:1002F000FF3080F01B81994240F21881023F2B446D
:100300005B1AA4B2B3FBFEF00EFB103344EA0344C5
:1003100000FB0CFCA44509D92C1900F1FF3380F037
:100320000781A44540F2048102382C4440EA07408A
:10033000A4EB0C0400271EB1D4400023C6E90043FF
:100340003946BDE8F0878B4209D9002E00F0EB80DA
:100350000027C6E9000138463946BDE8F087B3FA00
:1003600083F7002F47D18B4202D3824200F2FA80FA
:10037000841A61EB030301209846002EE0D0C6E901
:100380000048DDE702B9FFDEB2FA82F2002A40F04F
:100390008F80491B4FEA154E1FFA85F80127B1FBE4
:1003A000FEFC230C0EFB1C1143EA014308FB0CF17D
:1003B000994207D9EB180CF1FF3002D2994200F2B2
:1003C000CD808446591AA3B2B1FBFEF00EFB101487
:1003D00043EA044408FB00F8A04507D92C1900F1B2
:1003E000FF3302D2A04500F2B6801846A4EB080401
:1003F00040EA0C409FE7C7F1200CBB4022FA0CFEFC
:100400004EEA030E01FA07F420FA0CF521FA0CF378
:100410004FEA1E482543B3FBF8F92C0C08FB1933AF
:100420001FFA8EFA44EA034309FB0AF49C4202FADB
:1004300007F200FA07F10BD91EEB030309F1FF30B5
:1004400080F087809C4240F28480A9F102097344C5
:100450001B1BADB2B3FBF8F008FB103345EA0344B5
:1004600000FB0AFAA24508D91EEB040400F1FF3391
:100470006BD2A24569D90238744440EA0940A0FB16
:100480000289A4EB0A044C45C2464B4654D351D0D2
:10049000002E69D0B1EB0A0564EB030404FA0CFCEE
:1004A000FD40FC404CEA0505C6E90054002747E73B
:1004B000C2F1200320FA03F7954001FA02F021FA75
:1004C00003F34FEA154E3843010CB3FBFEF71FFA56
:1004D00085F80EFB173341EA034107FB08F38B4213
:1004E00004FA02F407D9691807F1FF3C2FD28B42B6
:1004F0002DD9023F2944CB1A81B2B3FBFEF00EFB8B
:10050000103341EA034100FB08F38B4207D9691815
:1005100000F1FF3C17D28B4215D902382944C91A81
:1005200040EA07473BE73746304609E70746E7E634
:100530001846FBE64145ABD2B8EB020A69EB0E0266
:1005400001381346A4E76046E9E7184695E7674691
:10055000D1E781467CE702382C4447E7ACF1020C36
:100560002B442FE7384608E73746E9E6704700BFD7
:1005700070B58AB0002405940694079408940994F1
:100580002D4BDA6C42F00402DA64DA6C02F00402F9
:100590000192019ADA6C42F08002DA64DA6C02F0BD
:1005A00080020292029ADA6C42F00102DA64DA6C9A
:1005B00002F001020392039ADA6C42F00202DA645A
:1005C000DB6C03F002030493049B22464FF4A46106
:1005D0004FF0904001F0A3FE184D2246102128460E
:1005E00001F09DFE4FF400530593154B06930794BD
:1005F00005A9144801F0A2FD4FF4A4630593012658
:1006000006960794089405A94FF0904001F096FDD6
:100610004FF4806305930694079405A9284601F0DA
:100620008DFD1023059306960794089405A9284686
:1006300001F084FD0AB070BD0010024000040048C3
:10064000000021100008004808B50948094B036064
:100650004FF4E133436000238360C36003610C22E5
:1006600042618361C3610362436200F02FFD08BDF4
:100670000C0100200044004008B50E480E4B0360FA
:100680004FF482734360002383604FF4E062C260E2
:10069000036143614FF4007282612822C2610362E8
:1006A000436283620722C26203630823436301F04B
:1006B000AEFF08BDA80000200030014030B5B9B041
:1006C0002422002128A803F019F80024229423945E
:1006D00024942594269488222146684603F00EF837
:1006E000022527954FF480732A9310232B9331957D
:1006F0003295012333930A23349307233593369598
:10070000379527A800F018FE0F2322930323239385
:10071000249425942694042122A801F0B5F800958C
:100720000F94684601F0E2FA4FF4007001F004FE05
:1007300039B030BD2DE9F04186B000F015FDFFF76E
:10074000BDFFFFF715FFFFF77FFFFFF795FF984805
:1007500002F08AF9002840F0DB8002F0C7F94FF47C
:10076000FA7000F025FD4FF4945002F0BFFF0546EB
:10077000002800F014818F4803F0E4F8FF27009769
:100780004FF487734FF494728021284602F0F6F9F3
:10079000284602F025FA384602F0A8FA864803F007
:1007A000D1F8284602F01CFA384602F09FFA834836
:1007B00002F032FF284602F0BBF94FF4FA6000F075
:1007C000F7FC7F4803F0BEF8284602F009FA3846E5
:1007D00002F08CFA7B4803F0B5F801260096334608
:1007E000002250210A2002F0B7FA009602230022CC
:1007F0005A210A2002F0B0FA009603230022642155
:100800000A2002F0A9FA02960024019400947823A9
:1008100046221146142002F009FB0296019400942E
:10082000782314224621084602F000FB0296019428
:100830000094782346221146142002F079FB029698
:1008400001960094782382224621502002F070FB0A
:1008500001960094234614225F212D2002F0D0FB44
:10086000019600963B4614225F21692002F0C8FBE6
:100870000296019600945F237D221946552002F0CE
:10088000D5FA029601960094732369224B211046F3
:1008900002F0CCFA4C4E0197009433464B4A214665
:1008A0000A2002F04FFDDFF848810194009743468B
:1008B000474A14210A2002F045FD0197009443465F
:1008C000444A21210A2002F081FD01940097334619
:1008D000414A32210A2002F079FD404803F032F803
:1008E000284602F025F94FF4FA6000F061FC3C481C
:1008F00002F0BAF880B9284602F072F90C238DF89C
:10090000143022238DF8153038238DF8163026E068
:10091000344803F017F820E7324803F013F8EAE709
:10092000314CA288E3884133C2EBC2020F32FF266A
:1009300000969BB292B241210F2002F0F3F90023FE
:1009400001930096234604AA41210F2002F096FD50
:10095000284602F0EDF84FF4FA7000F029FC9DF8FB
:1009600016300133DBB28DF816303C2BD8D19DF810
:1009700015300133DBB28DF8153000228DF81620CA
:100980003C2BCDD19DF814300133DBB28DF81430FF
:100990008DF81520182BC3D18DF81420C0E713480B
:1009A00002F0D0FF4FF0FF3006B0BDE8F08100BF8D
:1009B000784700087C4600088C460008B8470008C5
:1009C000A4460008BC4600080C000020D0460008E1
:1009D000DC46000815CD5B07B168DE3AE846000842
:1009E000984700083C4600081400002054460008C0
:1009F000040000207047FEE7FEE7FEE7FEE77047D1
:100A00007047704708B500F0C5FB08BD82B00A4BBF
:100A10001A6E42F001021A661A6E02F0010200928A
:100A2000009A9A6D42F080529A659B6D03F0805354
:100A30000193019B02B070470010024000B589B0DD
:100A40000023039304930593069307930268134BC3
:100A50009A4202D009B05DF804FB03F560431A6EB8
:100A600042F480521A661A6E02F480520192019A80
:100A7000DA6C42F00202DA64DB6C03F002030293E8
:100A8000029B282303930223049303230693052345
:100A9000079303A9024801F051FBDBE70030014056
:100AA0000004004800B589B0002303930493059324
:100AB000069307930268144B9A4202D009B05DF87E
:100AC00004FB03F5E6339A6D42F400329A659A6DA1
:100AD00002F400320192019ADA6C42F00102DA6407
:100AE000DB6C03F001030293029B0C2303930223AC
:100AF0000493032306930723079303A94FF0904021
:100B000001F01CFBDAE700BF004400402DE9F0488B
:100B10000446016883680269134342691343C2694A
:100B200013430868A24A024013430B6022685368CB
:100B300023F44053E1680B435360A16922689D4B45
:100B40009A4201D0236A1943936823F430630B431C
:100B500093602368984A934227D0984A934238D0AA
:100B6000974A93424ED0974A934261D0964A934215
:100B700074D0904A934200F08A8010258D4A9342A7
:100B800000F0AA80E369B3F5004F00F03581082D2D
:100B900000F2BF81DFE815F07F0195019F01BD01E3
:100BA000AA01BD01BD01BD01B40102F55842D2F850
:100BB000882002F00302032A09D8DFE802F00204C9
:100BC00081060125DAE70425D8E70825D6E71025B0
:100BD000D4E702F5E632D2F8882002F00C020C2AA3
:100BE0000ED8DFE802F0070D0D0D090D0D0D6F0D8C
:100BF0000D0D0B000025C1E70425BFE70825BDE763
:100C00001025BBE702F5E432D2F8882002F030026A
:100C1000102A09D005D9202A56D0302A06D1082515
:100C2000ACE71AB90025A9E70425A7E71025A5E731
:100C300002F5E232D2F8882002F0C002402A09D040
:100C400005D9802A42D0C02A06D1082596E71AB9CC
:100C5000002593E7042591E710258FE702F5E032A0
:100C6000D2F8882002F44072B2F5807F0BD007D909
:100C7000B2F5007F2CD0B2F5407F06D108257DE784
:100C80001AB900257AE7042578E7102576E702F5FA
:100C9000C832D2F8882002F44062B2F5806F0BD0DF
:100CA00007D9B2F5006F15D0B2F5406F06D108250F
:100CB00064E71AB9002561E704255FE710255DE7C1
:100CC00002255BE7022559E7022557E7022555E78C
:100CD000022553E7022551E7082D00F21D81DFE8C8
:100CE00015F00C001B0114001B0111001B011B015E
:100CF0001B0109004FF4004008E000F075FE28B920
:100D00000020D9E000F0ACFAF9E73048626802EB65
:100D10004203834200F20281B0EB023F00F2008105
:100D2000082D66D8DFE805F0056520653065656546
:100D3000580000F059FE0025070E060262685008B0
:100D40002B4616EB000B47F1000C58466146FFF7A7
:100D50008FFA03462846A3F540711D4A914200F2DE
:100D6000E1802268D360A7E0560800252B46DFF813
:100D700064B04FF0000C1BEB06004CF10001FFF7D4
:100D800077FA03462846E6E700F06AFA0025070EE0
:100D90000602626850082B4616EB000B47F1000C68
:100DA00058466146FFF764FA03462846D3E700BF7A
:100DB000F369FFEF0080004000380140004400402C
:100DC00000480040004C0040005000400024F40067
:100DD000FFFC0F00000024F45008002700252B46DC
:100DE00010F5000047F10001FFF742FA03462846DC
:100DF000B1E701200023AEE7082D49D8DFE805F070
:100E0000051E2948344848483F0000F0EDFD62685F
:100E1000530803EB4003B3FBF2F39BB20020A3F1B2
:100E200010014FF6EF7291427ED89AB222F00F0273
:100E3000C3F3420313432268D3603DE000F0E6FDB4
:100E40006268530803EB4003B3FBF2F39BB200204C
:100E5000E5E76268530803F1F47303F59043B3FBCD
:100E6000F2F39BB20020DAE700F0FAF96268530867
:100E700003EB4003B3FBF2F39BB20020CFE76268C1
:100E8000530803F58033B3FBF2F39BB20020C6E7AF
:100E900001200023C3E700F0A7FD636800EB5302C5
:100EA000B2FBF3F292B20020A2F110014FF6EF7301
:100EB00099423BD82368DA60002222666266BDE868
:100EC000F08800F0A3FD636800EB5302B2FBF3F27D
:100ED00092B20020E8E763685A0802F5740202F54E
:100EE0001052B2FBF3F292B20020DDE700F0B8F945
:100EF000636800EB5302B2FBF3F292B20020D3E737
:100F000063685A0802F50042B2FBF3F292B2002085
:100F1000CAE701200022C7E70120CDE70120CBE787
:100F20000120C9E70120C7E70120C5E70120C3E789
:100F3000436A13F0010F06D00268536823F40033AC
:100F4000816A0B435360436A13F0020F06D00268B4
:100F5000536823F48033C16A0B435360436A13F030
:100F6000040F06D00268536823F48023016B0B43FF
:100F70005360436A13F0080F06D00268536823F4E5
:100F80000043416B0B435360436A13F0100F06D0CC
:100F90000268936823F48053816B0B439360436A28
:100FA00013F0200F06D00268936823F40053C16B3E
:100FB0000B439360436A13F0400F0AD002685368F2
:100FC00023F48013016C0B435360036CB3F5801F53
:100FD0000BD0436A13F0800F06D00268536823F4E5
:100FE0000023816C0B43536070470268536823F4FD
:100FF000C003416C0B435360EBE72DE9F04105461C
:101000000F4616469846069C2B68DB6937EA0303B1
:101010000CBF01230023B3421DD1B4F1FF3FF3D035
:101020002CB100F0BFF8A0EB0800A042ECD92A6870
:10103000136823F4D07313602A68936823F00103C4
:101040009360202385F8713085F87230002385F88D
:101050007030032000E00020BDE8F08130B583B09F
:1010600004460023436700F09DF8054623681B688B
:1010700013F0080F0ED123681B6813F0040F17D16B
:10108000202384F8713084F87230002084F87000D6
:1010900003B030BD6FF07E430093034600224FF44F
:1010A00000112046FFF7A9FF0028E4D00320EFE756
:1010B0006FF07E4300932B4600224FF480012046C0
:1010C000FFF79BFF0028DBD00320E1E778B310B5E2
:1010D000044690F871300BB3242384F871302268F1
:1010E000136823F0010313602046FFF70FFD01286A
:1010F00013D0636ABBB92268536823F490435360EA
:101100002268936823F02A0393602268136843F0EF
:10111000010313602046FFF7A1FF10BD80F8703077
:10112000FFF7C0FCD8E72046FFF702FFE3E7012006
:101130007047000010B50446094B1868094BA3FB23
:101140000030800901F086F908B1012010BD0022AD
:1011500021464FF0FF3001F049F90020F6E700BFCB
:1011600000000020D34D621010B5094A136843F403
:1011700080731360032001F027F90020FFF7DAFFE6
:1011800010B10124204610BD0446FFF73FFCF9E7EB
:1011900000200240024A136801331360704700BF09
:1011A00084010020014B1868704700BF84010020B3
:1011B00038B50446FFF7F6FF0546B4F1FF3F00D00F
:1011C0000134FFF7EFFF401BA042FAD338BD000007
:1011D00030B583B00546204B9B6D13F0805F0BD07C
:1011E00001F0A2F8B0F5007F17D0802D1FD82DD0C8
:1011F000702D2DD000211BE0174CA36D43F08053C0
:10120000A365A36D03F080530193019B01F08CF85B
:10121000A36D23F08053A365E4E7802D03D9A02DAF
:1012200003D9022104E0002102E0012100E00321B2
:101230000A4A136823F007030B431360136803F093
:1012400007038B4206D0012003B030BD0221EFE737
:101250000121EDE70020F7E70010024000200240E6
:10126000314A9368D26802F0030213F00C030AD0EB
:101270000C2B06D0042B1FD0082B20D000200146B9
:1012800010E0012AF6D1284A126812F0080F0CD19A
:10129000254AD2F89420C2F30322244951F822109F
:1012A00043B100200C2B0DD070471F4A1268C2F3C7
:1012B0000312F2E70846F5E71D480021F2E71D4852
:1012C0000021EFE7184BDA6802F00302DB68C3F392
:1012D00002130133022A0AD0032A1AD0B1FBF3F316
:1012E000114AD068C0F3062000FB03F008E0104864
:1012F000B0FBF3F30C4AD068C0F3062000FB03F008
:10130000094BDB68C3F3416301335B00B0FBF3F0CF
:10131000CAE70848B0FBF3F3034AD068C0F30620DD
:1013200000FB03F0ECE700BF00100240104700088C
:101330000024F40000127A00002800F09082F0B53A
:1013400083B00446AC4B9D6805F00C05DE6806F0E2
:101350000306036813F0100F5DD0E5B10C2D18D013
:10136000A369002B00F0B780A34A136843F0010380
:101370001360FFF717FF07469F4B1B6813F0020F20
:1013800040F09680FFF70EFFC01B0228F4D903231C
:1013900071E2012EE4D1984B1B6813F0020F03D0C9
:1013A000A369002B00F05E82206A934B1B6813F048
:1013B000080F5DD0904B1B6803F0F00398425ED994
:1013C000FFF706FF002840F04F828B4B1A6842F06F
:1013D00008021A601A6822F0F002216A0A431A60B1
:1013E0005A6822F47F42E16942EA01225A60FFF71B
:1013F00037FF814B9B68C3F30313804AD35C03F030
:101400001F03D8407E4B18600020FFF793FE034671
:10141000002840F03082236813F0010F7AD0082DA5
:101420006FD00C2D6BD06368B3F5803F00F09180D6
:10143000B3F5A02F00F093806F4B1A6822F480322E
:101440001A601A6822F480221A606368002B00F088
:101450009380FFF7A7FE0746674B1B6813F4003F16
:1014600058D1FFF79FFEC01B6428F5D9032302E281
:10147000614BD3F894301B0903F0F0039EE75E4BF9
:101480001A6842F008021A601A6822F0F002216A13
:101490000A431A605A6822F47F42E16942EA012253
:1014A0005A60206AFFF794FE0028A0D00123E2E1F1
:1014B000514B1A6842F008021A601A6822F0F002D2
:1014C000216A0A431A605A6822F47F42E16942EABB
:1014D00001225A609FE7484A136823F00103136012
:1014E000FFF760FE0746444B1B6813F0020F92D0D3
:1014F000FFF758FEC01B0228F5D90323BBE1032EDA
:1015000091D13D4B1B6813F4003F03D06368002B5F
:1015100000F0AC81236813F0020F4FD0042D3CD0B3
:101520000C2D38D0E368002B75D0334A136843F490
:1015300080731360FFF736FE06462F4B1B6813F4CB
:10154000806F5FD1FFF72EFE801B0228F5D90323A1
:1015500091E1294A136843F48033136075E703F17E
:101560008043A3F53C331A6842F480221A601A685B
:1015700042F480321A6068E7FFF714FE07461E4BFC
:101580001B6813F4003FC5D0FFF70CFEC01B642896
:10159000F5D903236FE1022EC4D1174B1B6813F456
:1015A000806F03D0E368002B00F06281124A536819
:1015B00023F0F853216943EA01635360236813F071
:1015C000080F53D06369002B39D00B4AD2F89430FE
:1015D00043F00103C2F89430FFF7E4FD0646064BE2
:1015E000D3F8943013F0020F40D1FFF7DBFD801BDE
:1015F0000228F4D903233EE100100240F846000817
:10160000000000209E4A536823F0F853216943EA02
:1016100001635360D2E79A4A136823F4807313601E
:10162000FFF7C0FD0646964B1B6813F4806FC5D0CC
:10163000FFF7B8FD801B0228F5D903231BE1904A70
:10164000D2F8943023F00103C2F89430FFF7AAFDDA
:1016500006468B4BD3F8943013F0020F06D0FFF7F9
:10166000A1FD801B0228F4D9032304E1236813F0B1
:10167000040F7AD0824B9B6D13F0805F0BD1804BAF
:101680009A6D42F080529A659B6D03F080530193EE
:10169000019B012600E000267A4B1B6813F4807F33
:1016A00026D0A368012B37D0052B3DD0744BD3F83F
:1016B000902022F00102C3F89020D3F8902022F06D
:1016C0000402C3F89020A368002B3BD0FFF76AFD0B
:1016D00007466B4BD3F8903013F0020F44D1FFF75D
:1016E00061FDC01B41F288339842F2D90323C2E066
:1016F000644A136843F480731360FFF753FD074691
:10170000604B1B6813F4807FCBD1FFF74BFDC01BF0
:101710000228F5D90323AEE0594AD2F8903043F0BD
:101720000103C2F89030CEE7554BD3F8902042F039
:101730000402C3F89020D3F8902042F00102C3F8CD
:101740009020C0E7FFF72EFD07464D4BD3F89030B1
:1017500013F0020F08D0FFF725FDC01B41F28833BC
:101760009842F2D9032386E066BBA36A002B00F0FF
:1017700081800C2D00F08280022B29D0404B1A680A
:1017800022F080721A601B6813F0205F04D13C4A7B
:10179000D36823F00303D360394AD36823F08873F6
:1017A00023F48033D360FFF7FDFC0446344B1B6801
:1017B00013F0007F51D0FFF7F5FC001B0228F5D98C
:1017C000032358E02E4A936D23F080539365CCE7B2
:1017D0002B4A136823F080731360FFF7E3FC054680
:1017E000274B1B6813F0007F06D0FFF7DBFC401B84
:1017F0000228F5D903233EE0236B5A1E636B1B02BC
:1018000043EA0213A26B120943EA4243E26A13431A
:10181000E26B5208013A43EA4253226C5208013A01
:1018200043EA4263164AD360136843F0807313603F
:10183000D36843F08073D360FFF7B4FC0446104BC9
:101840001B6813F0007F06D1FFF7ACFC001B0228D9
:10185000F5D903230FE000230DE000230BE0012363
:1018600018467047012306E0012304E0012302E04B
:10187000012300E00023184603B0F0BD0123FAE77E
:101880000010024000700040002800F09A8070B5FF
:1018900004464E4B1B6803F007038B420CD24B4AA5
:1018A000136823F007030B431360136803F0070367
:1018B0008B4201D0012070BD0D46236813F0010F4B
:1018C00039D06368032B09D0022B26D063BB404A72
:1018D000126812F0020F06D10120ECE73C4A1268B0
:1018E00012F0007F6FD03A498A6822F00302134356
:1018F0008B60FFF757FC0646354B9B6803F00C03E3
:101900006268B3EB820F16D0FFF74CFC801B41F2EC
:1019100088339842F0D90320CDE72D4A126812F49B
:10192000003FE0D10120C6E7294A126812F4806F17
:10193000D9D10120BFE7236813F0020F06D0244A53
:10194000936823F0F003A1680B4393601F4B1B685F
:1019500003F00703AB420CD91C4A136823F00703BA
:101960002B431360136803F00703AB4201D001203F
:10197000A1E7236813F0040F06D0154A936823F4F7
:10198000E063E1680B439360236813F0080F07D00E
:101990000F4A936823F46053216943EAC1039360BB
:1019A000FFF75EFC0A4B9B68C3F30313094AD35C41
:1019B00003F01F03D840084B18600020FFF7BAFB64
:1019C00079E701207047012075E700BF0020024041
:1019D00000100240F846000800000020014B186883
:1019E000704700BF0000002008B5FFF7F7FF054B68
:1019F0009B68C3F30223044AD35C03F01F03D8405F
:101A000008BD00BF001002400847000808B5FFF7F6
:101A1000E5FF054B9B68C3F3C223044AD35C03F084
:101A20001F03D84008BD00BF00100240084700084F
:101A3000F8B55A4BDB6813F0030F18D0574BDB682F
:101A400003F003030268934202D001252846F8BD43
:101A5000002A00F0A080514BDB68C3F3021301336E
:101A60004268934201D00125F0E700251AE003689F
:101A7000022B59D0032B5ED0012B01D001250FE0A2
:101A8000464A126812F0020F61D0444DEA6822F013
:101A900073024468013C43EA04131343EB600025DE
:101AA000002DD3D10F4604463C4A136823F08063CF
:101AB0001360FFF777FB0646384B1B6813F0006F87
:101AC00005D0FFF76FFB801B0228F5D90325002DF9
:101AD000BCD1002F3DD131490B6923F41F3323F4CE
:101AE0004073A068E2681209520442EA00221343DC
:101AF0000B612A4A136843F080631360FFF752FBBF
:101B00000646264B1B6813F0006F05D1FFF74AFB12
:101B1000801B0228F5D90325002D97D11F4A136990
:101B2000A1690B43136191E71C4A126812F4806F9C
:101B3000ABD10125B4E7194A126812F4003FA4D1D1
:101B4000164A126812F4802F9FD10125A8E70125BB
:101B5000A6E7012F0FD01148026922F0C06222F4DB
:101B6000FE42A16863695B08013B5B0643EA01230F
:101B700013430361BDE70948026922F4C00222F45D
:101B8000FE42A16823695B08013B5B0543EA012330
:101B900013430361ADE7012558E700BF0010024081
:101BA000F8B5514BDB6813F0030F18D04E4BDB68D0
:101BB00003F003030268934202D001252846F8BDD2
:101BC000002A00F08E80484BDB68C3F30213013318
:101BD0004268934201D00125F0E700251AE003682E
:101BE000022B59D0032B5ED0012B01D001250FE031
:101BF0003D4A126812F0020F61D03B4DEA6822F0B4
:101C000073024468013C43EA04131343EB6000256C
:101C1000002DD3D10F460446334A136823F0805376
:101C20001360FFF7BFFA06462F4B1B6813F0005FE7
:101C300005D0FFF7B7FA801B0228F5D90325002D40
:101C4000BCD1002F3DD128494B6923F41F3323F425
:101C50004073A068E2681209520442EA002213436A
:101C60004B61214A136843F080531360FFF79AFADF
:101C700006461D4B1B6813F0005F05D1FFF792FA73
:101C8000801B0228F5D90325002D97D1164A5369E8
:101C900061690B43536191E7134A126812F4806F34
:101CA000ABD10125B4E7104A126812F4003FA4D169
:101CB0000D4A126812F4802F9FD10125A8E7012553
:101CC000A6E70948426922F0C06222F4FE42A168F8
:101CD00023695B08013B5B0643EA0123134343612D
:101CE000BFE701256AE700BF001002402DE9F0417F
:101CF00082B00446036813F4006F2FD0436EB3F52F
:101D0000800F25D008D9B3F5000F10D0B3F5400FE0
:101D100040F09980002610E0002B40F094800021D4
:101D20000430FFF785FE06463EB1374618E05E4AAE
:101D3000D36843F48033D36000265B4AD2F88830FE
:101D400023F44003616E0B43C2F88830002707E09C
:101D500000212030FFF724FF0646E5E700273E4636
:101D6000236813F4805F15D0A36EB3F1807F7AD01F
:101D70006CD9B3F1007F70D0B3F1407F7AD1002EDF
:101D80007BD1494AD2F8883023F04073A16E0B43CF
:101D9000C2F88830236813F4003F00F08E80424B75
:101DA0009B6D13F0805F6AD13F4B9A6D42F0805279
:101DB0009A659B6D03F080530193019B4FF00108DE
:101DC0003A4A136843F480731360FFF7EBF9054652
:101DD000364B1B6813F4807F05D1FFF7E3F9401BF6
:101DE0000228F5D90326002E62D12F4BD3F890306C
:101DF00013F4407316D0D4F884209A4212D02A4AA1
:101E0000D2F8903023F44073D2F8901041F480312E
:101E1000C2F89010D2F8901021F48031C2F89010DE
:101E2000C2F8903013F0010F2CD1002E40F0438106
:101E30001D4AD2F8903023F44073D4F884100B4339
:101E4000C2F8903035E001273E4689E793B900217A
:101E5000201DFFF7EDFD064691E7134AD36843F4D2
:101E60008033D3608BE7002104F12000FFF798FE58
:101E7000064684E701273E468CE737468AE74FF05F
:101E800000089DE7FFF78EF90546074BD3F8903021
:101E900013F0020FC9D1FFF785F9401B41F28833D7
:101EA0009842F2D90326C0E70010024000700040BB
:101EB0003746B8F1000F40F00081236813F0010F9E
:101EC00008D09D4AD2F8883023F00303A16B0B435E
:101ED000C2F88830236813F0020F08D0964AD2F86F
:101EE000883023F00C03E16B0B43C2F88830236881
:101EF00013F0040F08D0904AD2F8883023F0300352
:101F0000216C0B43C2F88830236813F0080F08D007
:101F1000894AD2F8883023F0C003616C0B43C2F8C1
:101F20008830236813F0100F08D0834AD2F8883025
:101F300023F44073A16C0B43C2F88830236813F07C
:101F4000200F08D07C4AD2F8883023F44063E16C3B
:101F50000B43C2F88830236813F4007F08D0764A18
:101F6000D2F8883023F44023E16D0B43C2F8883067
:101F7000236813F4806F08D06F4AD2F8883023F4B6
:101F80004013216E0B43C2F88830236813F0400FD2
:101F900008D0694AD2F8883023F44053216D0B43AE
:101FA000C2F88830236813F0800F08D0624AD2F854
:101FB000883023F44043616D0B43C2F888302368B6
:101FC00013F4807F08D05C4AD2F8883023F4403381
:101FD000A16D0B43C2F88830236813F4005F0FD063
:101FE000554AD2F8883023F04063E16E0B43C2F8C3
:101FF0008830E36EB3F1006F65D0B3F1806F67D0C6
:10200000236813F4002F0FD04B4AD2F8883023F006
:102010004063216F0B43C2F88830236FB3F1006F28
:102020005ED0B3F1806F60D0236813F4802F0FD09F
:10203000414AD2F8883023F04063616F0B43C2F805
:102040008830636FB3F1006F57D0B3F1806F59D010
:10205000236813F4804F0FD0374AD2F8883023F02A
:102060004053A16F0B43C2F88830A36FB3F1805F78
:1020700050D0B3F1005F55D0236813F4004F08D05F
:102080002D4AD2F8883023F08043E16F0B43C2F829
:102090008830236813F4803F09D0274AD2F888306B
:1020A00023F00043D4F880100B43C2F88830384640
:1020B00002B0BDE8F0813746FBE61F4A936D23F07E
:1020C00080539365F9E6D36843F48013D36097E7B0
:1020D0000121201DFFF7ACFC002891D007468FE7B7
:1020E000D36843F48013D3609EE70121201DFFF7DE
:1020F0009FFC002898D0074696E7D36843F48013E6
:10210000D360A5E70121201DFFF792FC00289FD096
:1021100007469DE70221201DFFF78AFC0028ABD06F
:102120000746A9E7022104F12000FFF739FD002846
:10213000A2D00746A0E700BF00100240F0B482B072
:10214000002341E0D0F82CC02CEA040CC6F3C004F4
:102150009C4044EA0C04C46286E0062400E00024AB
:10216000B4403C430235664E46F82540654C256830
:10217000D44304EA05064F6817F4803F01D042EAD1
:102180000506604D2E606D6804EA05064F6817F479
:10219000003F01D042EA05065A4D6E60AD6804EA80
:1021A00005064F6817F4801F01D042EA0506554D19
:1021B000AE60ED682C404E6816F4001F01D042EA74
:1021C0000504504AD46001330A6832FA03F400F07F
:1021D000938001249C402240F5D04D68022D01D00F
:1021E000122D10D1DE08083650F826C003F007057E
:1021F000AF000F25BD402CEA050C0D69BD4045EA36
:102200000C0540F8265006685F000325BD40ED43ED
:1022100005EA060C4E6806F00306BE4046EA0C06C8
:1022200006604E6806F1FF3CBCF1010F03D9112E88
:1022300001D0122E11D1866805EA060CCE68BE4088
:1022400046EA0C068660466826EA040C4E68C6F329
:1022500000169E4046EA0C0646604E6806F0030CE7
:10226000BCF1030F3FF46EAFC46825408C68BC40DE
:102270002C43C4604C6814F0805FA4D0224C256EBF
:1022800045F001052566246E04F001040194019CCB
:102290009D08AE1C1A4C54F8267003F00304A600E7
:1022A0000F24B44027EA0407B0F1904F3FF457AF32
:1022B000164CA04216D004F58064A04214D004F558
:1022C0008064A04212D004F58064A04210D004F5CE
:1022D0008064A0420ED004F58064A0423FF43DAF7C
:1022E00007243DE701243BE7022439E7032437E7CD
:1022F000042435E7052433E702B0F0BC704700BF83
:1023000000000140000401400010024000040048A9
:102310000369194201D100207047012070470AB9B2
:102320008162704781617047024B186800F4C06099
:10233000704700BF00700040B0F5007F0FD01F4B0A
:102340001B6803F4C063B3F5806F34D01B4A136875
:1023500023F4C06343F48063136000207047174B7D
:102360001B6803F4C063B3F5007F22D0134A1368DF
:1023700023F4C06343F400731360114B1A683223D3
:1023800003FB02F30F4AA2FB03239B0C013300E083
:10239000013B0A4A526912F4806F01D0002BF7D139
:1023A000064B5B6913F4806F01D100207047032056
:1023B0007047002070470020704700BF0070004049
:1023C0000000002083DE1B43074AD36823F4E06348
:1023D0001B041B0C000200F4E060184340F0BF60D7
:1023E00040F40030D060704700ED00E030B4174B8F
:1023F000DB68C3F30223C3F10704042C28BF0424C1
:102400001D1D062D18D9033B4FF0FF3505FA04F4C6
:1024100021EA0401994005FA03F322EA0303194370
:1024200000280BDB0901C9B200F1604000F56140F2
:1024300080F8001330BC70470023E5E700F00F0080
:102440000901C9B2024B1954F4E700BF00ED00E0E6
:1024500014ED00E00138B0F1807F0AD2064B5860DD
:10246000064AF02182F823100020986007221A60A3
:1024700070470120704700BF10E000E000ED00E071
:10248000F8B505460F4616461C462B689B6837EA8A
:1024900003030CBF01230023B34237D0B4F1FF3F45
:1024A000F3D0FEF77FFE069BC01AA04201D2002C9B
:1024B000EBD12A68536823F0E00353606B68B3F5EF
:1024C000827F0BD0AB6AB3F5005F14D0012385F88F
:1024D0005D30002385F85C30032018E0AB68B3F56D
:1024E000004F02D0B3F5806FECD12A68136823F057
:1024F00040031360E6E72A68136823F4005313606F
:102500002A68136843F400531360DFE70020F8BD26
:10251000F8B507460C4615461E4602E0B6F1FF3FE9
:102520000BD13A6893682340AB423BD0B4F5C06FFF
:10253000F4D1002DF2D1137BF0E7FEF733FE069BBA
:10254000C01AB04201D2002EEBD13A68536823F092
:10255000E00353607B68B3F5827F0BD0BB6AB3F5B1
:10256000005F14D0012387F85D30002387F85C30CA
:10257000032018E0BB68B3F5004F02D0B3F5806FBD
:10258000ECD13A68136823F040031360E6E73A6839
:10259000136823F4005313603A68136843F400533C
:1025A0001360DFE70020F8BD70B582B004460D4629
:1025B000164600920B4600224FF4C051FFF7A8FFC9
:1025C000B8B900962B46002280212046FFF758FF1D
:1025D000B8B900962B4600224FF4C0612046FFF7A1
:1025E00097FF034650B1236E43F020032366032375
:1025F00004E0236E43F0200323660323184602B051
:1026000070BD236E43F0200323660323F6E7002802
:1026100053D010B504460023836290F85D30002B40
:1026200040D0022384F85D302268136823F0400311
:102630001360E368B3F5E06F39D90022B3F5706F2A
:1026400004D0B3F5E06F01D00021A162216B21B964
:10265000B3F5E06F2ED9022323636368A1680B43AF
:1026600021690B4361690B43A16901F400710B43BC
:10267000E1690B43216A0B43A06A216803430B60A5
:10268000638B03F00403616A0B43616B0B43E168E6
:102690000B43216813434B6000202066012384F81C
:1026A0005D3010BD80F85C30FEF7C8F9B9E74FF433
:1026B0008052C3E701232363CFE7012070472DE950
:1026C000F04182B090F85C40012C00F0E4801E469E
:1026D000154688460446012380F85C30FEF762FD0B
:1026E000074694F85D20D2B2012A09D002200123C6
:1026F00084F85D30002384F85C3002B0BDE8F081DE
:10270000B8F1000F00F0B980002D00F0B88003236D
:1027100084F85D3000232366C4F83880A587E587F8
:102720002364A4F84430A4F846302365E364A36826
:10273000B3F5004F1CD023681A6812F0400F03D184
:102740001A6842F040021A60E368B3F5E06F33D9CB
:1027500063680BB1012D1BD1A26B23681288DA606C
:10276000A36B0233A363E38F013B9BB2E3870FE0CC
:102770002268136843F480431360DCE7FEF712FD20
:10278000C01BB04202D3B6F1FF3F7AD1002E7AD0FF
:10279000E38F9BB2002B5BD023689A6812F0020F84
:1027A000ECD0A26B1288DA60A36B0233A363E38FD1
:1027B000013B9BB2E387EBE763680BB1012D30D19E
:1027C000E38F9BB2012B0BD9A26B23681288DA60CE
:1027D000A36B0233A363E38F023B9BB2E38720E04A
:1027E000A26B236812781A73A36B0133A363E38F80
:1027F000013B9BB2E38714E0A36B1B781373A36BBD
:102800000133A363E38F013B9BB2E38709E0FEF74B
:10281000C9FCC01BB04202D3B6F1FF3F35D1002E38
:1028200035D0E38F9BB29BB12268936813F0020FFF
:10283000EDD0E38F9BB2012BDED9A36B1B88D36055
:10284000A36B0233A363E38F023B9BB2E387E8E70A
:102850003A4631462046FFF7A7FE08B120232366FB
:10286000A36833B901932368DA6801929B680193E6
:10287000019B236E6BB9002039E7012037E7012067
:1028800035E7032033E7032031E703202FE7032058
:102890002DE701202BE702202FE700000F49D1F898
:1028A000883043F47003C1F888300D4B1A6842F049
:1028B00001021A60002098601A6822F0A85222F4DF
:1028C00010221A604FF48052DA601A6822F48022D3
:1028D0001A6098614FF000638B60704700ED00E074
:1028E0000010024000B583B002A901F8010D4FF4B9
:1028F0007A7301220248FFF7E2FE03B05DF804FBA1
:10290000A800002008B501224FF480714FF09040DC
:10291000FFF705FDC820FEF74BFC00224FF4807145
:102920004FF09040FFF7FBFCC820FEF741FC01226E
:102930004FF480714FF09040FFF7F1FCC820FEF794
:1029400037FC08BD38B5054600224FF480614FF0D2
:102950009040FFF7E4FC074C002210212046FFF7CF
:10296000DEFC2846FFF7BEFF012210212046FFF7BC
:10297000D6FC38BD0004004838B5054601224FF4A6
:1029800080614FF09040FFF7CAFC074C00221021F5
:102990002046FFF7C4FC2846FFF7A4FF01221021C0
:1029A0002046FFF7BCFC38BD00040048F8B50746D8
:1029B0000D4616461C464420FFF7C4FFC7F3C70068
:1029C000FFF7DAFFC6F3C700FFF7D6FF4520FFF792
:1029D000B9FFE8B2FFF7D0FF280AFFF7CDFFE0B25A
:1029E000FFF7CAFF200AFFF7C7FFF8BD38B5054655
:1029F0000C464E20FFF7A6FFC5F3C700FFF7BCFF4C
:102A00004F20FFF79FFFE0B2FFF7B6FF200AFFF766
:102A1000B3FF38BD08B5094800F094FF02E0642018
:102A2000FEF7C6FB4FF480610548FFF771FC0128F3
:102A3000F5D0044800F086FF08BD00BF40470008FD
:102A4000000400485847000808B52220FFF77AFF25
:102A5000C420FFF791FF2020FFF774FFFF20FFF74E
:102A600071FFFFF7D7FF08BD38B50546FFF74AFFEE
:102A70000120FFF767FF2720FFF77EFF0120FFF708
:102A80007BFF0020FFF778FF0C20FFF75BFFD720CC
:102A9000FFF772FFD620FFF76FFF9D20FFF76CFF57
:102AA0002C20FFF74FFFA820FFF766FF3A20FFF723
:102AB00049FF1A20FFF760FF3B20FFF743FF082084
:102AC000FFF75AFF1120FFF73DFF0320FFF754FFE8
:102AD0003220FFF737FF002404E0285DFFF74CFFAA
:102AE0000134A4B21D2CF8D9002038BD38B54FF4FC
:102AF0009473802200210846FFF758FF002508E064
:102B0000FF20FFF739FF0134A4B20F2CF8D90135AB
:102B1000ADB2B5F5947F08D229460020FFF766FFD5
:102B20002420FFF70FFF0024EFE7FFF78DFF38BDEC
:102B300070B506464FF49473802200210846FFF7D3
:102B400035FF00250AE004EB0513F05CFFF714FFE6
:102B50000134A4B20F2CF6D90135ADB2B5F5947F8E
:102B600008D229460020FFF741FF2420FFF7EAFEA4
:102B70000024EFE7FFF768FF70BD0000F8B50D46D1
:102B800016461F46134B186019815A81BDF818204C
:102B90009A8111F0070F15D1C9080E4C6182A682E7
:102BA00032460D4800F05AFE0F210C4800F056FE48
:102BB000E7810023238247B1B42F06D0054B9E80C6
:102BC000DD8005E0C9080131E7E7024B9D80DE802A
:102BD000F8BD00BF88010020147B0008387B000886
:102BE000014B1860704700BF8801002038B53D4B8D
:102BF0009B88834215D33B4BDB888B4211D3394BE7
:102C0000DB895A2B1BD010D9B42B20D0B3F5877F8A
:102C10000AD1344B5B891B1A9BB2013B084699B21F
:102C200005E0314800F08EFE38BD002BFCD12D4B65
:102C30001B8A032BF8D8DFE803F01C16353C294B20
:102C40001B895B1A9BB2013B014698B2EFE7254C0A
:102C50002389181A80B2013880B26389591A89B25F
:102C6000013989B2E3E71F4B1B89181A80B201387A
:102C700080B21C4B1B89834227D31A4B5B898B4242
:102C800023D3C0F3CF03174C658A05FB01312468B9
:102C9000655CF2B100F00700802343FA00F028439E
:102CA0006054C1E70F4B5B89591A89B2013989B267
:102CB000DFE70C4C2389181A80B2013880B263898F
:102CC000591A89B2013989B2D3E7074800F03AFEB0
:102CD000AAE700F007038020184125EA00006054AD
:102CE000A2E700BF88010020507B000810B4002438
:102CF0000CE002FB04320A490968885401339BB294
:102D0000074A528A9A42F4D80134A4B2044B9B8AEF
:102D1000A34201D90023F3E75DF8044B704700BFDD
:102D2000880100202DE9F84381460D461646984655
:102D3000BDF820700AE03A4629462046FFF756FFC4
:102D40000134A4B2B442F6D30135ADB2454501D247
:102D50004C46F7E7BDE8F8832DE9F04F83B00192C8
:102D60001F46304B9B8883420CD305460E462D4BA5
:102D7000DB888B4206D39DF83030012B34D04FF0E6
:102D8000000849E0284800F0DDFD03B0BDE8F08F01
:102D900009F101090FFA89F9CB46B8464FEA470A0B
:102DA0000AF1FF3AD145F0DA002423465445EFDA20
:102DB00005EB0B02A2EB0802002AE9DB3344A3EB8C
:102DC0000803002BE4DB05EB090080B2BBB2A4B220
:102DD000A11989B2C91AC01A019A89B280B2FFF743
:102DE00005FF013424B2E0E74FF00009D4E705EB1A
:102DF000080080B29CB2A11989B201390138019A48
:102E000089B280B2FFF7F2FE631C1BB24B45EEDBCA
:102E100008F101080FFA88F8B946B845B5DA002379
:102E2000F4E700BF88010020607A00082DE9F04F28
:102E300089B00E46924619460493BDF84820039285
:102E40009DF84C909DF850200292364B9B8883420F
:102E500025D30546334AD288B24220D353451ED3E8
:102E60008A421CD3AAEB0008B8F1000FB8BFC8F122
:102E70000008049B9B1B002BB8BF5B420593C3F16A
:102E8000000B504511D201230693049B9E4210D2A1
:102E900001230793059BA8EB0307002429E02248A0
:102EA00000F050FD09B0BDE8F08F4FF0FF330693FE
:102EB000EBE74FF0FF330793ECE701230093029B0E
:102EC000039A31462846FFF747FFBBEB470F06DC66
:102ED0005545E7D0059BFF1A069B1D44ADB2B8EBE4
:102EE000470F06DB049B9E42DCD04744079B1E44F1
:102EF000B6B20134E4B2B9F1010FDED10B4BA3FB42
:102F000004235B0803EB4303E31A13F0FF0FD4D150
:102F100001230093029BFF2231462846FFF71CFF46
:102F20000024D2E788010020E4790008ABAAAAAA0D
:102F30002DE9F04784B00C461F46BDF830809DF85F
:102F400034109DF838902C4B9B8883423DD3054626
:102F50001646294AD288A24237D3B34235D3BA4261
:102F600033D3002945D1CDF808904FF0000ACDF8B1
:102F700004A0CDF80080234632462146FFF756FFD5
:102F8000CDF80890CDF804A0CDF800803B462A4645
:102F900021462846FFF74AFFCDF80890CDF804A057
:102FA000CDF800802346324639463046FFF73EFFD3
:102FB000CDF80890CDF804A0CDF800803B462A4615
:102FC00039463046FFF732FF02E00C4800F0BAFC09
:102FD00004B0BDE8F087CDF8089000230193CDF848
:102FE00000802346324621462846FFF71FFF013462
:102FF000A4B2BC42EFD3EBE788010020A07A00081E
:103000002DE9F04F8BB003939DF854300493944B0B
:103010009B88834215D383468946914BDB888B423C
:103020000FD913B20593520092B2C2F1030213B248
:1030300007939DF85030012B00F08E804FF0000870
:103040009BE0884800F07EFC0BB0BDE8F08FBDF837
:10305000186006EB0A0398B2ADB205EB0907BFB2E0
:10306000012400942346DDF80CB05A4639460490FA
:10307000FFF772FEAAEB06081FFA88F800942346B1
:10308000CDF80CB05A4639464046FFF765FEAAEB2C
:10309000050B1FFA8BFB06EB0907BFB20094234612
:1030A000039A39465846FFF757FEA9EB0606B6B213
:1030B00000942346039A31465846FFF74DFEA9EB8C
:1030C000050B1FFA8BFB00942346039A5946404692
:1030D000FFF742FE00942346039A59460498FFF7EF
:1030E0003BFE05EB0A081FFA88F800942346DDF83A
:1030F0000CB05A4631464046FFF72EFE0094234658
:103100005A4639464046FFF727FE25442DB2059B17
:10311000AB429CDA079B002B15DB069B059A9B1A9A
:10312000079901EB83030A331BB20793531E1BB2AB
:103130000593069B01331BB20693069B059A9342A7
:1031400082DC069DE3E7069B9B009BB2079A134433
:1031500006331BB20793ECE7002306938246ECE7A5
:103160004FEA85081FFA88F8984408F106080FFA14
:1031700088F3079301350FFA85F8059B98453FF7CB
:1031800063AF1FFA88F505EB0B0398B2BDF8146026
:1031900006EB0907BFB201240094049BDDF80CA0E4
:1031A000524639460690FFF7D7FDABEB05039BB2BD
:1031B00018460094049BCDF80CA05246394608905E
:1031C000FFF7CAFDABEB060A1FFA8AFA05EB090303
:1031D00099B20094049B039A09915046FFF7BCFDF5
:1031E000A9EB0507BFB20094049B039A39465046E9
:1031F000FFF7B2FDA9EB060A1FFA8AFA0094049BB6
:10320000039A51460898FFF7A7FD0094049B039A80
:1032100051460698FFF7A0FD06EB0B0A1FFA8AFA43
:103220000094049B039A39465046FFF795FD00949D
:10323000049B039A09995046FFF78EFD079B002BCC
:103240008EDB059BA8EB0308079B03EB880808F1BE
:103250000A080FFA88F30793013E33B2059389E712
:1032600088010020A47900082DE9F84F1F46BDF819
:103270002880BDF82CB0314B9B88834215D3814602
:103280008A462E4BDB888B420FD3203AFD8805FB04
:1032900002F2BD8815F0070318BF012303EBD50325
:1032A0003D6803FB0255002643E0254800F04AFB39
:1032B000BDE8F88F2A7804F0070180230B411A42F9
:1032C00012D006EB0A0104EB09005A4689B280B21B
:1032D000FFF78CFC08E006EB0A0104EB090042460C
:1032E00089B280B2FFF782FC04F00703072B18D0E5
:1032F0000134A4B2BB88A34215D9B8F1FF0FD9D0CD
:103300002A7804F0070180230B411A42E3D006EB30
:103310000A0104EB09005A4689B280B2FFF766FC45
:10332000E2E70135E4E713F0070F00D0013501367D
:10333000B6B2FB88B342BBD90024DBE7880100208A
:10334000647900082DE9F04F83B01D46BDF830A028
:10335000BDF834B01B4B9B88834209D38046894615
:103360001746184BDB888B4202D30E46044612E008
:10337000154800F0E7FA03B0BDE8F08FCDF804B0CF
:10338000CDF800A02B4631462046FFF76DFF0137F0
:10339000AB881C44A4B23A78002AECD0AB88234412
:1033A000084989888B4203DDEB881E44B6B2444647
:1033B000EB8833440349C9888B42DFDD4E464446DF
:1033C000DCE700BF88010020D07A00082DE9F04139
:1033D000ADF5027D04460D4617461E464FF0FF0828
:1033E0004246002142A800F089F94246002102A885
:1033F00000F084F91E4B9B88A34205D31C4BDB884D
:10340000AB4201D3002217E01A4800F09BFA0DF5F9
:10341000027DBDE8F081184981FB0731FB17C3EB42
:10342000A103184603EB830359007B1A303302A92A
:103430008B54013212B20746002FECD1002308E072
:10344000511E02A8405C42A9C85401331BB2013A84
:1034500012B2002AF4DCBDF824320193BDF8203208
:103460000093334642AA29462046FFF76BFFCEE77A
:1034700088010020247A0008676666662DE9F04F0F
:103480008BB006468B469246BDF85070BDF854800E
:103490005F4A07AC07CA03C4228003939D889AF849
:1034A00004205C4CA4FB02120AA901EBD20212F820
:1034B0000C2CCDF80480009759463046FFF7D4FE17
:1034C00005EB06091FFA89F99AF80420A4FB0213F8
:1034D000DB0803EB83035900521A0AAB53FA82F25A
:1034E00012F80C2CCDF804800097039BCDF810B097
:1034F00059464846FFF7B8FEAB08059309EB0300B1
:103500004FEA550B1BFA80F0CDF804800097039B1F
:103510003A22DDF81090494680B2FFF7A5FE06EB8F
:1035200045009AF80530A4FB03C30DF1280C0CEB01
:10353000D30313F80C2C1BFA80F0CDF8048000970D
:10354000039BCDF81090494680B2FFF78DFE05EB46
:10355000450906EB09009AF80520A4FB02C3DB0825
:1035600003EB83035900521A0DF1280C5CFA82F226
:1035700012F80C2C1BFA80F0CDF804800097039B06
:10358000049980B2FFF770FE06EB85001BFA80F00D
:1035900080B20599401ACDF804800097039B3A2227
:1035A000DDF810B0594680B2FFF75EFE9AF806309B
:1035B000A4FB03130AA901EBD30313F80C2C05EBAE
:1035C00085057019CDF804800097039D2B46594658
:1035D00080B2FFF749FE9AF80630A4FB0324E40802
:1035E00004EB840462009B1A0AAA52FA83F313F8CC
:1035F0000C2C4FEA49003044CDF8048000972B464C
:10360000594680B2FFF730FE0BB0BDE8F08F00BF27
:1036100030460008CDCCCCCC30B400250DE002FB08
:1036200005320A490968845C8C5401339BB2074A0D
:10363000528A9A42F3D80135ADB2044B9B8AAB4211
:1036400001D90023F3E730BC704700BF8801002098
:10365000DFF834D0002103E00C4B5B5843500431B9
:103660000B480C4B42189A42F6D30B4A02E0002357
:1036700042F8043B094B9A42F9D3FFF70FF900F0E7
:1036800011F8FDF757F8FEE700800120287C0008BC
:10369000000000208000002080000020A401002005
:1036A000FEE7000070B50D4E0D4CA41BA4100025C4
:1036B000A54209D10B4E0C4C00F0AEFFA41BA41088
:1036C0000025A54205D170BD56F825309847013533
:1036D000EEE756F8253098470135F2E7187C0008E8
:1036E000187C0008187C00081C7C0008024B01466E
:1036F000186800F059B800BF1C00002002440346BF
:10370000934200D1704703F8011BF9E738B505462D
:10371000002945D051F8043C0C1F002BB8BFE41819
:1037200000F0C6FB1F4A1368104633B9636014608B
:103730002846BDE8384000F0BCBBA3420CD9216844
:103740006218934204BF1A685B68636004BF521832
:1037500022600460ECE713465A680AB1A242FAD923
:1037600019685818A0420BD12068014458188242A9
:103770001960DDD1106852685A6001441960D7E7BA
:1037800002D90C232B60D3E7206821188A4204BF9A
:1037900011685268626004BF091821605C60C7E765
:1037A00038BD00BF9C00002070B5CD1C25F003057E
:1037B00008350C2D38BF0C25002D064601DBA9422B
:1037C00003D90C233360002070BD00F071FB214A47
:1037D0001468214691B9204C23681BB9304600F08B
:1037E000B9F820602946304600F0B4F8431C24D1D3
:1037F0000C233360304600F05CFBE4E70B685B1B96
:1038000018D40B2B0FD90B60CD50CC18304600F0DC
:1038100050FB04F10B00231D20F00700C31AD3D086
:103820005A42E250D0E78C424B6816BF6360136087
:103830000C46EBE70C464968CCE7C41C24F00304B3
:10384000A04205D0211A304600F084F80130CFD0D4
:103850002560DBE79C000020A00000200FB40A4B8D
:1038600013B51C6824B1A36913B9204600F032FADD
:1038700005AB049AA1680193204600F045FB02B015
:10388000BDE8104004B070471C00002070B50E4623
:10389000054618B183690BB900F01CFAAB69AC6836
:1038A00013B9284600F016FA234B9C4217D16C68D6
:1038B000A3891B071DD52369DBB1013EA36816F858
:1038C000011F013BA360E9B9002B2EDA22460A2131
:1038D000284600F04FF8013011D00A2011E0174BB4
:1038E0009C4201D1AC68E3E7154B9C4208BFEC68F1
:1038F000DEE72146284600F08FF80028DDD04FF0A3
:10390000FF3070BD002B04DAA2699A4206DC0A2956
:1039100004D023685A1C22601970CFE7224628463B
:1039200000F028F80130C9D1E9E723680A205A1CC1
:1039300022601870E5E700BF9C7B0008BC7B000894
:103940007C7B0008024B01461868FFF79FBF00BF51
:103950001C00002038B5064C0023054608462360AD
:1039600000F044FE431C02D1236803B12B6038BD34
:10397000A0010020F8B50E461446054618B183692B
:103980000BB900F0A7F9214B9C422AD16C68A369BE
:10399000A360A3891A072ED5236963B3236920681E
:1039A000C01A6369F6B28342374604DC21462846D2
:1039B00000F026F928BBA368013BA36023685A1CCA
:1039C00022601E7063690130834204D0A389DB0743
:1039D00019D50A2E17D12146284600F011F990B1C9
:1039E0000FE00B4B9C4201D1AC68D0E7094B9C42E5
:1039F00008BFEC68CBE72146284600F00DF8002808
:103A0000CCD04FF0FF373846F8BD00BF9C7B000894
:103A1000BC7B00087C7B0008324B70B51D680646F5
:103A20000C4625B1AB6913B9284600F053F92E4B6B
:103A30009C420FD16C68B4F90C309AB215072CD4A3
:103A4000D00611D40922326043F04003A3814FF025
:103A5000FF303EE0254B9C4201D1AC68EBE7244BA4
:103A60009C4208BFEC68E6E7510712D5616B41B193
:103A700004F14403994202D03046FFF747FE002389
:103A80006363A38923F02403A38100236360236974
:103A90002360A38943F00803A38123694BB9A38959
:103AA00003F42073B3F5007F03D02146304600F0C5
:103AB000BFF9A28912F001030CD00023A36063694F
:103AC0005B42A361236953B9B4F90C3013F0800051
:103AD000BAD170BD920758BF6369A360F2E70020B6
:103AE000F7E700BF1C0000209C7B0008BC7B00089F
:103AF0007C7B00088A892DE9F041054610070C46B9
:103B000058D44B68002B05DC0B6C002B02DC00202A
:103B1000BDE8F081E66A002EF9D0002312F480524D
:103B20002F68216A2B6032D0606DA3895A0705D5B2
:103B30006368C01A636B0BB1236CC01A0023024682
:103B4000E66A216A2846B047431CA38906D1296842
:103B50001D2948D8294ACA40D60744D500226260A8
:103B6000D9042269226004D5421C01D12B6803B913
:103B70006065616B2F600029C9D004F1440399424C
:103B800002D02846FFF7C2FD00206063C0E7012392
:103B90002846B047411CC8D12B68002BC5D01D2B2F
:103BA00001D0162B01D12F60B1E7A38943F0400368
:103BB000A381ADE70F69002FA9D093070E6808BF56
:103BC0004B690F6018BF0023A6EB07088B60B8F1A4
:103BD000000F9CDD43463A46216AA66A2846B04754
:103BE000002806DCA38943F04003A3814FF0FF3097
:103BF0008EE70744A8EB0008E9E700BF010040207A
:103C000038B50B6905460C46DBB118B183690BB9B1
:103C100000F060F80C4B9C4209D16C68B4F90C3090
:103C20007BB121462846BDE83840FFF763BF074B0C
:103C30009C4201D1AC68F1E7054B9C4208BFEC689F
:103C4000ECE7002038BD00BF9C7B0008BC7B00086F
:103C50007C7B0008002310B50446C0E90033836074
:103C600081814366C281C0E9043383611946082219
:103C70005C30FFF743FD054B6362054BA362054BC8
:103C8000E362054B2462236310BD00BF4544000876
:103C9000674400089F440008C3440008014900F03D
:103CA00085B800BF013C000870B54A1E6825554321
:103CB0000E4605F17401FFF777FD044640B100217F
:103CC000C0E900160C30A06005F16802FFF716FD90
:103CD000204670BD836910B5044633BBC0E912337A
:103CE0000365124B124A1B688262984204BF01238B
:103CF000836100F01FF86060204600F01BF8A060B0
:103D0000204600F017F80022E06004216068FFF709
:103D1000A1FF01220921A068FFF79CFF02221221C6
:103D2000E068FFF797FF0123A36110BD787B0008CF
:103D30009D3C0008F8B51B4B1E68B369074613B9D4
:103D40003046FFF7C7FF4836D6E90134013B03D5BB
:103D5000336833B13668F7E7B4F90C506DB16834A5
:103D6000F4E704213846FFF79FFF30600028F1D1C7
:103D70000C233B6004462046F8BD0B4B6566C4E946
:103D80000055A560C4E90335C4E905550822294654
:103D900004F15C00FFF7B2FCC4E90D55C4E912550B
:103DA000E9E700BF787B00080100FFFF2DE9F84339
:103DB0008046894600F14804002614B93046BDE823
:103DC000F883D4E90175013F01D52468F5E7AB8993
:103DD000012B07D9B5F90E30013303D029464046EF
:103DE000C84706436835EEE770B50E46B1F90E10C8
:103DF000002996B014461D4607DA00232B60B389CC
:103E00001A0610D44FF480630EE06A4600F080FB7F
:103E10000028F2DB019A02F47042A2F500535A42E4
:103E20005A412A60EEE740230020236016B070BD9F
:103E30008B8973B59D0706460C4607D504F14703E9
:103E4000236023610123636102B070BD01AB6A4648
:103E5000FFF7CAFF009905463046FFF7A5FC48B9B1
:103E6000B4F90C309A05EFD423F0030343F00203B6
:103E7000A381E3E70D4BB362A389206043F0800385
:103E8000A381009B6361019B20615BB1B4F90E10BB
:103E9000304600F04FFB28B1A38923F0030343F021
:103EA0000103A381A3891D43A581CDE79D3C0008A3
:103EB000704770479368013B002B10B4936008DA99
:103EC0009469A34201DB0A2903D15DF8044BFFF793
:103ED00051BD1368581C1060197008465DF8044BFA
:103EE0007047F8B506460F461446D518AC4201D1C6
:103EF000002007E03A4614F8011B3046FFF7DAFFCE
:103F0000431CF3D1F8BD00002DE9F04F0C469DB0E5
:103F100017461D46064618B183690BB9FFF7DAFE4E
:103F20007C4B9C4258D17468A38918075ED52369DD
:103F3000002B5BD00023099320238DF829303023F8
:103F40008DF82A3003954FF0010BB846454615F819
:103F5000013B0BB1252B54D1B8EB070A0BD05346CC
:103F60003A4621463046FFF7BCFF013000F0C280E0
:103F7000099B5344099398F80030002B00F0BA8055
:103F800000234FF0FF32CDE90523049307938DF80A
:103F900053301A93A846052218F8011B5E48FCF717
:103FA00017F9049B78BBD90644BF20228DF8532013
:103FB0001A0744BF2B228DF853202A782A2A2AD0A8
:103FC000079AA84600200A25414611F8013B303BDC
:103FD000092B69D960B324E0504B9C4201D1B468ED
:103FE000A2E74F4B9C4208BFF4689DE7214630464C
:103FF000FFF712FD00289DD04FF0FF301DB0BDE847
:10400000F08FA846A2E7444A801A0BFA00F0184342
:1040100004904546BEE7039A111D12680391002AD9
:1040200001DB079204E0524243F00203079204933B
:1040300098F800302E2B0ED198F801302A2B38D169
:10404000039B1A1D1B680392002BB8BF4FF0FF3370
:1040500008F102080593334D98F800100322284612
:10406000FCF7B6F840B14023401B03FA00F0049B74
:10407000034308F10108049398F800102A488DF8CA
:104080002810062208F10107FCF7A2F8002837D013
:10409000264B1BBB039B073323F007030833039313
:1040A000099B4B44099350E705FB023201208846E7
:1040B0008AE7002308F10108059319460A254046BE
:1040C00010F8012B303A092A03D9002BC3D00591EF
:1040D000C1E705FB012101238046F0E703AB009314
:1040E0002246134B04A93046AFF30080B0F1FF3FE6
:1040F0008146D5D1A3895B063FF57EAF09987DE760
:1041000003AB009322460A4B04A9304600F088F81E
:10411000ECE700BF9C7B0008DC7B0008BC7B000850
:104120007C7B0008E27B0008E67B000800000000C2
:10413000E33E00082DE9F04791461F468A680B6967
:10414000DDF820809342B8BF1346C9F8003091F8DB
:10415000432006460C4612B10133C9F800302368EB
:10416000990642BFD9F800300233C9F800302568FB
:1041700015F0060507D104F1190AE368D9F8002003
:104180009B1AAB4228DC94F843302268003318BFF6
:10419000012392062DD404F1430239463046C0472C
:1041A000013020D02368E568D9F8002003F0060329
:1041B000042B08BFAD1AA36822690CBF25EAE57578
:1041C00000259342C4BF9B1AED184FF000091A3422
:1041D0004D451AD1002008E00123524639463046A9
:1041E000C047013003D14FF0FF30BDE8F087013503
:1041F000C3E7E1185A1C302081F84300224494F8A8
:10420000451082F843100233C5E7012322463946A0
:104210003046C0470130E6D009F10109D8E7000077
:104220002DE9F04301F1430C0C46097E85B06E295F
:104230001746064698460C9A00F0B38022D86329A8
:1042400036D00AD8002900F0B980582900F08380C0
:1042500004F1420584F8421032E0642901D0692952
:10426000F6D120681368050603F104012AD51B68FE
:104270001160002B03DA2D225B4284F843206F4843
:104280000A2239E0732900F09D8008D86F2920D0D8
:104290007029DDD1236843F02003236003E07529F2
:1042A00017D07829D4D1782384F84530644855E074
:1042B0001368191D1B68116004F1420584F842302F
:1042C00001238CE01B68116010F0400F18BF1BB277
:1042D000CFE713682568181D1060280601D51B68F4
:1042E00002E06806FBD51B8854486F2914BF0A22D8
:1042F0000822002184F843106568A560002DC0F2F3
:104300009580216821F004012160002B3DD1002D12
:1043100040F08E806546082A0BD12368DB0708D55C
:10432000236962689A42DEBF302305F8013C05F13B
:10433000FF35ACEB05032361CDF800803B4603AAB3
:1043400021463046FFF7F6FE01304DD14FF0FF30E9
:1043500005B0BDE8F083394884F84510136821683A
:104360001D1D1B6815600A060BD5CA0744BF41F026
:10437000200121601BB9226822F020022260102255
:10438000B7E74D0648BF9BB2EFE76546B3FBF2F1D6
:1043900002FB1133C35C05F8013D0B460029F5D142
:1043A000B9E7136825686169181D106028061B6845
:1043B00001D5196002E06A06FBD51980002323614C
:1043C0006546B9E71368191D11601D686268002110
:1043D0002846FBF7FDFE08B1401B6060636823615F
:1043E000002384F84330A7E723692A46394630463C
:1043F000C0470130AAD023689B0713D4E068039B11
:104400009842B8BF1846A3E701234A4639463046CA
:10441000C04701309AD00135E368039A9B1AAB423A
:10442000F2DCEBE7002504F11909F5E7002BACD12C
:10443000037884F8423004F142056CE7ED7B000814
:10444000FE7B000810B50C46B1F90E1000F094F890
:104450000028ABBF636DA3891B1823F48053ACBF46
:104460006365A38110BD2DE9F0411F468B89DB05F3
:1044700005460C46164605D502230022B1F90E105A
:1044800000F068F8A389B4F90E1023F48053A381D7
:1044900032463B462846BDE8F04100F017B810B55B
:1044A0000C46B1F90E1000F055F8431CA38915BF56
:1044B000606523F4805343F48053A38118BFA38124
:1044C00010BDB1F90E1000F013B8000038B5074C5C
:1044D000054608461146002222601A4600F094F86C
:1044E000431C02D1236803B12B6038BDA00100201A
:1044F00038B5064C002305460846236000F04EF808
:10450000431C02D1236803B12B6038BDA0010020F9
:1045100038B5074C0023054608461146236000F0D5
:1045200045F8431C02D1236803B12B6038BD00BF9E
:10453000A001002038B5064C00230546084623603C
:1045400000F03CF8431C02D1236803B12B6038BD56
:10455000A001002038B5074C054608461146002248
:1045600022601A4600F032F8431C02D1236803B1DE
:104570002B6038BDA001002038B5074C0546084621
:104580001146002222601A4600F028F8431C02D18E
:10459000236803B12B6038BDA0010020024B5822D4
:1045A0001A604FF0FF307047A0010020024B5822E4
:1045B0001A604FF0FF307047A0010020024B5822D4
:1045C0001A600020704700BFA0010020024B582253
:1045D0001A604FF0FF307047A0010020024B5822B4
:1045E0001A604FF0FF307047A0010020044A0549CF
:1045F0001368002B08BF0B4618441060184670471C
:10460000A4000020A8010020024B58221A604FF09D
:10461000FF307047A0010020F8B500BFF8BC08BC0F
:104620009E467047F8B500BFF8BC08BC9E46704770
:10463000303132333435363738390000652D50612A
:1046400070657220696E6974206661696C65640DBD
:10465000000000004661696C656420746F20617021
:10466000706C7920666F7220626C61636B206D657F
:104670006D6F72792E2E2E0D000000005061696E54
:10468000745F4E6577496D6167650D0073686F777C
:1046900020696D61676520666F7220617272617951
:1046A0000D00000053656C656374496D6167653A80
:1046B000426C61636B496D6167650D00447261779F
:1046C000696E673A426C61636B496D6167650D00A5
:1046D00077617665736861726500000068656C6C6F
:1046E0006F20776F726C64004550445F446973704B
:1046F0006C61790D00000000000000000000000067
:104700000102030406070809000000000102030477
:10471000A0860100400D0300801A060000350C0041
:1047200040420F0080841E0000093D0000127A0004
:104730000024F40000366E010048E801006CDC0241
:1047400044656275673A20652D506170657220621C
:104750007573790D0000000044656275673A206545
:104760002D506170657220627573792072656C6579
:104770006173650D00000000020201111212222275
:10478000666969595899998800000000F8B4135176
:1047900035515119010000001018180818180800A8
:1047A000000000000000000000000000131444128C
:1047B0000000000000000000FFFFFFFFFFFFFFFF01
:1047C000FFFFFFFFFFFFFFFFFFFFFFFFFFFFFFFFF9
:1047D000FFFFFFFFFFFFFFFFFFFFFFFFFFFFFFFFE9
:1047E000FFFFFFFFFFFFFFFFFFFFFFFFFFFFFFFFD9
:1047F000FFFFFFFFFFFFFFFFFFFFFFFFFFFFFFFFC9
:10480000FFFFFFFFFFFFFFFFFFFFFFFFFFFFFFFFB8
:10481000FFFFFFFFFFFFFFFFFFFFFFFFFFFFFFFFA8
:10482000FFFFFFFFFFFFFFFFFFFFFFFFFFFFFFFF98
:10483000FFFFFFFFFFFFFFFFFFFFFFFFFFFFFFFF88
:10484000FFFFFFFFFFFFFFFFFFFFFFFFFFFFFFFF78
:10485000FFFFFFFFFFFFFFFFFFFFFFFFFFFFFFFF68
:10486000FFFFFFFFFFFFFFFFFFFFFFFFFFFFFFFF58
:10487000FFFFFFFFFFFFFFFFFFFFFFFFFFFFFFFF48
:10488000FFFFFFFFFFFFFFFFFFFFFFFFFFFFFFFF38
:10489000FFFFFFFFFFFFFFFFFFFFFFFFFFFFFFFF28
:1048A000FFFFFFFFFFFFFFFFFFFFFFFFFFFFFFFF18
:1048B000FFFFFFFFFFFFFFFFFFFFFFFFFFFFFFFF08
:1048C000FFFFFFFFFFFFFFFFFFFFFFFFFFFFFFFFF8
:1048D000FFFFFFFFFFFFFFFFFFFFFFFFFFFFFFFFE8
:1048E000FFFFFFFFFFFFFFFFFFFFFFFFFFFFFFFFD8
:1048F000FFFFF8001FFFFFFFFFFFFFFFFFFFFFFFAE
:10490000FFFFF8001FFFFFFFFFFFFFFFFFFFFFFF9D
:10491000FFFFF8001FFFFFFFFFFFFFFFFFFFFFFF8D
:10492000FFFFF8001FFFFFFFFFFFFFFFFFFFFFFF7D
:10493000FFFFF8001FFFFFFFFFFFFFFFFFFFFFFF6D
:10494000FFFFF8001FFFFFFFFFFFFFFFFF800000DA
:10495000000000001FFFFFFFFFFFFFFFFF800000C0
:10496000000003F01FFFFFFFFFFFFFFFFF800000BD
:10497000000003F01FFFFFFFFFFFFFFFFF800000AD
:10498000003803F01FFFFFFFFFFFFFFFFF80000065
:1049900001F803F01FFFFFFFFFFFFFFFFF80000094
:1049A0000FF803F01FFFFFFFFFFFFFFFFF80000076
:1049B0007FF803F01FFFFFFFFFFFFFFFFF800003F3
:1049C000FFF8000FFFFFFFFFFFFFFFFFFF80001F4B
:1049D000FFF8000FFFFFFFFFFFFFFFFFFF80007FDB
:1049E000FFF0000FFFFFFFFFFFFFFFFFFF80007FD3
:1049F000FF80000FFFFFFFFFFFFFFFFFFF80007F33
:104A0000FC00000FFFFFFFFFFFFFFFFFFF80007FA5
:104A1000F800000FFFFFFFFFFFFFFFFFFF80003FD9
:104A2000FE00000FFFFFFFFFFFFFFFFFFF800007FB
:104A3000FFC0000FFFFFFFFFFFFFFFFFFF80000031
:104A4000FFF8000FFFFFFFFFFFFFFFFFFF800000E9
:104A50001FF8000FFFFFFFFFFFFFFFFFFF800000B9
:104A60001FF8000FFFFFFFFFFFFFFFFFFF800000A9
:104A70007FF8000FFFFFFFFFFFFFFFFFFF80000336
:104A8000FFF8000FFFFFFFFFFFFFFFFFFF80001F8A
:104A9000FFE0000FFFFFFFFFFFFFFFFFFF80007F32
:104AA000FF00000FFFFFFFFFFFFFFFFFFF80007F02
:104AB000FC00000FFFFFFFFFFFFFFFFFFF80007FF5
:104AC000F000000FFFFFFFFFFFFFFFFFFF80007FF1
:104AD000FC00000FFFFFFFFFFFFFFFFFFF80001F35
:104AE000FF00000FFFFFFFFFFFFFFFFFFF8000033E
:104AF000FFE0000FFFFFFFFFFFFFFFFFFF80000051
:104B0000FFF8000FFFFFFFFFFFFFFFFFFF80000028
:104B10003FFF800FFFFFFFFFFFFFFFFFFF80000051
:104B200007FFC00FFFFFFFFFFFFFFFFFFF80000039
:104B300001FFE00FFFFFFFFFFFFFFFFFFF80007C93
:104B4000007FF00FFFFFFFFFFFFFFFFFFF80007FF1
:104B5000000FF80FFFFFFFFFFFFFFFFFFF80007F49
:104B6000C007FC0FFFFFFFFFFFFFFFFFFF80007F7D
:104B7000E000000FFFFFFFFFFFFFFFFFFF80007F50
:104B8000F800000FFFFFFFFFFFFFFFFFFF80003F68
:104B9000FE00000FFFFFFFFFFFFFFFFFFF8000078A
:104BA000FFC0000FFFFFFFFFFFFFFFFFFF800001BF
:104BB000FFF0000FFFFFFFFFFFFFFFFFFF83FF007E
:104BC0007FF8000FFFFFFFFFFFFFFFFFFF81FE00E9
:104BD0001FF8000FFFFFFFFFFFFFFFFFFF80FF0039
:104BE0001FF8000FFFFFFFFFFFFFFFFFFF807FC0E9
:104BF0007FF8000FFFFFFFFFFFFFFFFFFF803FF980
:104C0000FFF0000FFFFFFFFFFFFFFFF000001FFF9F
:104C1000FF80000FFFFFFFFFFFFFFFF0003F0BFFD4
:104C2000FE00000FFFFFFFFFFFFFFFF0003F00FF50
:104C3000F800000FFFFFFFFFFFFFFFF0003F003F06
:104C4000E000000FFFFFFFFFFFFFFFF0003F000F3E
:104C50008000000FFFFFFFFFFFFFFFF0003F00029B
:104C60000000000FFFFFFFFFFFFFFFF0003F00000D
:104C70000000000FFFFFFFFFFFFFFFF00000FFFF3E
:104C8000FFFFFFFFFFFFFFFFFFFFFFF00000FFFF41
:104C9000FFFFFFFFFFFFFFFFFFFFFFF00000FFFF31
:104CA000FFFFFFFFFFFFFFFFFFFFFFF00000FFFF21
:104CB000FFFFFFFFFFFFFFFFFFFFFFF00000FFFF11
:104CC000FFFFFFFFFFFFFFFFFFFFFFF00018FFFFE9
:104CD000FE7FF9FFFFFFFFFFFFFFFFF001F8FFFF7F
:104CE000F81FF0FFFFFFFFFFFFFFFFF03FF8FFFFA0
:104CF000E00FC0FFFFFFFFFFFFFFFFF0FFE0FFFF40
:104D0000E007807FFFFFFFFFFFFFFFF0FC00FFFFDA
:104D1000F003C01FFFFFFFFFFFFFFFF0FF00FFFFDB
:104D2000F800E00FFFFFFFFFFFFFFFF03FF0C000C4
:104D300000007007FFFFFFFFFFFFFFF003F8C00058
:104D400000001801FFFFFFFFFFFFFFF007F8C000A2
:104D500000000401FFFFFFFFFFFFFFF07FE0C00046
:104D600000000601FFFFFFFFFFFFFFF0FF00C00094
:104D700000000701FFFFFFFFFFFFFFF0FC00FFFF48
:104D8000FFFC07C3FFFFFFFFFFFFFFF0FFE0F8FF9F
:104D9000FFFE0FE3FFFFFFFFFFFFFFF01FF8F83FED
:104DA000FF060013FFFFFFFFFFFFFFF001F8E00326
:104DB000FF06001FFFFFFFFFFFFFFFF00018E000EE
:104DC0000106001FFFFFFFFFFFFFFFF00000E000F4
:104DD0000106001FFFFFFFFFFFFFFFF07000F8005C
:104DE0000106001FFFFFFFFFFFFFFFF0F980FE003D
:104DF00001060FFFFFFFFFFFFFFFFFF0F9C0FFC03D
:104E000001060001FFFFFFFFFFFFFFF0CCC0FFFF27
:104E1000C1060001FFFFFFFFFFFFFFF0CCC0FFFF57
:104E2000C1060001FFFFFFFFFFFFFFF0FFC0FF8F84
:104E3000C1060001FFFFFFFFFFFFFFF0FF80FC0046
:104E400001060001FFFFFFFFFFFFFFF0FF00FE0074
:104E500001060FFFFFFFFFFFFFFFFFF00000FE0056
:104E60000106001FFFFFFFFFFFFFFFF00040FD00F6
:104E70000106001FFFFFFFFFFFFFFFF003C0F880E8
:104E80000106001FFFFFFFFFFFFFFFF01FC0E04014
:104E9000FF02001FFFFFFFFFFFFFFFF0FF80C0408A
:104EA000FF00001FFFFFFFFFFFFFFFF0FC00C0201F
:104EB0007E000FFFFFFFFFFFFFFFFFF0FC00E000A1
:104EC0007E0000FFFFFFFFFFFFFFFFF0FF80F00706
:104ED000F0000003FFFFFFFFFFFFFFF01FC0F8031C
:104EE00000000001FFFFFFFFFFFFFFF003C0FC0019
:104EF00000000001FFFFFFFFFFFFFFF00040FE008A
:104F000000010001FFFFFFFFFFFFFFF01E00FF0099
:104F1000007F8001FFFFFFFFFFFFFFF07F80FF00AA
:104F2000007F8301FFFFFFFFFFFFFFF07F80FC009A
:104F3000000003FFFFFFFFFFFFFFFFF0EDC0F800E1
:104F4000000003FFFFFFFFFFFFFFFFF0CCC0F003F7
:104F5000000003FFFFFFFFFFFFFFFFF0CCC0E007F3
:104F6000E00003FFFFFFFFFFFFFFFFF0CFC0E01FE8
:104F7000FC0003FFFFFFFFFFFFFFFFF0CF80E03FDC
:104F8000FFE003FFFFFFFFFFFFFFFFF00E00F87FD2
:104F9000FFFF83FFFFFFFFFFFFFFFFF00000FCFFAD
:104FA000FFFF83FFFFFFFFFFFFFFFFF04300FEFF58
:104FB000FFFFFFFFFFFFFFFFFFFFFFF0C780FFFFC7
:104FC000FFFFFFFFFFFFFFFFFFFFFFF0CFC0FFFF6F
:104FD000FFFFFFFFFFFFFFFFFFFFFFF0CCC0FFFF62
:104FE000FFFFFFFFFFFFFFFFFFFFFFF0FCC0FFFF22
:104FF000FFE000FFFFFFFFFFFFFFFFF078C0FFFFB4
:10500000FFE000FFFFFFFFFFFFFFFFF03040FFFF6B
:10501000FFE00083FFFFFFFFFFFFFFF00000F07FD6
:10502000FFE00083FFFFFFFFFFFFFFF0FFFCF07FCB
:1050300083E00083FFFFFFFFFFFFFFF0FFFCF06056
:1050400083FFE083FFFFFFFFFFFFFFF0FFFCF06047
:1050500083842083FFFFFFFFFFFFFFF001C0F060AC
:1050600083842083FFFFFFFFFFFFFFF000C0F0609D
:1050700083842083FFFFFFFFFFFFFFF000C0F0608D
:1050800083842083FFFFFFFFFFFFFFF0FFC0F0607E
:1050900083842083FFFFFFFFFFFFFFF0FF80F060AE
:1050A00083842083FFFFFFFFFFFFFFF0FF00F0601E
:1050B00083842083FFFFFFFFFFFFFFF00000F0600D
:1050C00083842083FFFFFFFFFFFFFFF00000F060FD
:1050D00083842083FFFFFFFFFFFFFFF07000F0607D
:1050E00083842083FFFFFFFFFFFFFFF0F980F06064
:1050F00083FFE083FFFFFFFFFFFFFFF0F9C0F060D9
:1051000083FFE083FFFFFFFFFFFFFFF0CCC0F060F5
:1051100083000003FFFFFFFFFFFFFFF0CCC0F06044
:1051200083000003FFFFFFFFFFFFFFF0FFC0F06001
:1051300083000003FFFFFFFFFFFFFFF0FF80F06031
:1051400083000003FFFFFFFFFFFFFFF0FF00F060A1
:1051500083000003FFFFFFFFFFFFFFF00000F06090
:1051600083000003FFFFFFFFFFFFFFF00000F06080
:1051700083FFE083FFFFFFFFFFFFFFF0FFC0F06052
:1051800083842083FFFFFFFFFFFFFFF0FFC0F0607D
:1051900083842083FFFFFFFFFFFFFFF0FFC0F0606D
:1051A00083842083FFFFFFFFFFFFFFF001C0F0605B
:1051B00083842083FFFFFFFFFFFFFFF000C0F0604C
:1051C00083842083FFFFFFFFFFFFFFF000C0F0603C
:1051D00083842083FFFFFFFFFFFFFFF00000F060EC
:1051E00083842083FFFFFFFFFFFFFFF01E00C0004E
:1051F00003842083FFFFFFFFFFFFFFF07F80C000DD
:1052000003842083FFFFFFFFFFFFFFF07F80C000CC
:1052100003842083FFFFFFFFFFFFFFF0EDC0C0000E
:1052200003FFE083FFFFFFFFFFFFFFF0CCC0C000E4
:1052300003E00083FFFFFFFFFFFFFFF0CCC0C000D3
:1052400003E00083FFFFFFFFFFFFFFF0CFC0FFFF82
:10525000FFE00083FFFFFFFFFFFFFFF0CF80FFFFB6
:10526000FFE000FFFFFFFFFFFFFFFFF00E00FFFF6B
:10527000FFE000FFFFFFFFFFFFFFFFF00000FFFF69
:10528000FFE000FFFFFFFFFFFFFFFFF00000FFFF59
:10529000FFFFFFFFFFFFFFFFFFFFFFF00000FFFF2B
:1052A000FFFFFFFFFFFFFFFFFFFFFFF00000FFFF1B
:1052B000FFFFFFFFFFFFFFFFFFFFFFF00000FFFF0B
:1052C000FFFFFFFFFFFFFFFFFFFFFFF0FFF8FFFF04
:1052D000FFFFFFFFFFFFFFFFFFFFFFF0FFF8FFFFF4
:1052E000FFFFFFFFFFFFFFFFFFFFFFF0FFF8FFFFE4
:1052F000FFFFFFFFFFFFFFFFFFFFFFF0C318FFFFF0
:10530000FFFFFFFFFFFFFFFFFFFFFFF0C318FFF0EE
:10531000000000FFFFFFFFFFFFFFFFF0C318FFF0DB
:10532000000000FFFFFFFFFFFFFFFFF0C318FFF0CB
:10533000000000FFFFFFFFFFFFFFFFF0C018FFF0BE
:10534000000000FFFFFFFFFFFFFFFFF00000FFF086
:10535000000000FFFFFFFFFFFFFFFFF00000FFF076
:10536000000000FFFFFFFFFFFFFFFFF0FFFCFFFE5D
:105370000783C0FFFFFFFFFFFFFFFFF0FFFCFFFE03
:105380000783C0FFFFFFFFFFFFFFFFF0FFFCFFFEF3
:105390000783C0FFFFFFFFFFFFFFFFF00000FFFEDE
:1053A0000783C0FFFFFFFFFFFFFFFFF00000FFFECE
:1053B0000783C0FFFFFFFFFFFFFFFFF01E00FFFEA0
:1053C0000783C0FFFFFFFFFFFFFFFFF07F80FFFEAF
:1053D0000783C0FFFFFFFFFFFFFFFFF07F80FFFE9F
:1053E0000783C0FFFFFFFFFFFFFFFFF0EDC0FFFEE1
:1053F0000703C07FFFFFFFFFFFFFFFF0CCC0FC00F3
:1054000000000001FFFFFFFFFFFFFFF0CCC0F8002E
:1054100000000001FFFFFFFFFFFFFFF0CFC0F00023
:1054200000000001FFFFFFFFFFFFFFF0CF80E00063
:1054300000000001FFFFFFFFFFFFFFF00E00E00094
:1054400000000001FFFFFFFFFFFFFFF00000E00092
:1054500000000001FFFFFFFFFFFFFFF01E00E03E26
:105460000783C0FFFFFFFFFFFFFFFFF07F80E07EAD
:105470000783C0FFFFFFFFFFFFFFFFF07F80E07E9D
:105480000783C0FFFFFFFFFFFFFFFFF0E1C0E07EEB
:105490000783C0FFFFFFFFFFFFFFFFF0C0C0E07EFC
:1054A0000783C0FFFFFFFFFFFFFFFFF0C0C0E07EEC
:1054B0000783C0FFFFFFFFFFFFFFFFF0C0C0E07EDC
:1054C0000783C0FFFFFFFFFFFFFFFFF040C0E07E4C
:1054D0000783C0FFFFFFFFFFFFFFFFF00000E07E3C
:1054E0000783C0FFFFFFFFFFFFFFFFF000C0E07E6C
:1054F000000000FFFFFFFFFFFFFFFFF07FF0E07EF7
:10550000000000FFFFFFFFFFFFFFFFF0FFF0E07E66
:10551000000000FFFFFFFFFFFFFFFFF0FFF0E03E96
:10552000000000FFFFFFFFFFFFFFFFF0C0C0E00231
:10553000000000FFFFFFFFFFFFFFFFF0C0C0E00023
:10554000000000FFFFFFFFFFFFFFFFF00000E00192
:10555000FFFFFFFFFFFFFFFFFFFFFFF0FFC0F001B6
:10556000FFFFFFFFFFFFFFFFFFFFFFF0FFC0F8019E
:10557000FFFFFFFFFFFFFFFFFFFFFFF0FFC0FE0386
:10558000FFFFFFFFFFFFFFFFFFFFFFF001C0FFC3B3
:10559000FFFFFFFFFFFFFFFFFFFFFFF000C0FFFF68
:1055A000FFFFFFFFFFFFFFFFFFFFFFF000C0FFFF58
:1055B000FFFFFFFFFFFFFFFFFFFFFFF00000FFFF08
:1055C000FFFFFFFFFFFFFFFFFFFFFFF01E00FFFFDA
:1055D000F81FFFFFFFFFFFFFFFFFFFF07F80FFFFD0
:1055E000F81FFFFFFFFFFFFFFFFFFFF0FF80FFFF40
:1055F000F81FFFFFFFFFFFFFFFFFFFF0E1C0FFFF0E
:10560000F81FFFFFFFFFFFFFFFFFFFF0C0C0FFFF1E
:10561000F81FFFFFFFFFFFFFFFFFFFF0E1C0FFFFED
:10562000F81FFC07FFFFFFFFFFFFFFF07FC0FFFF3A
:10563000F81FFC07FFFFFFFFFFFFFFF07F80FFFF6A
:10564000F81FFC07FFFFFFFFFFFFFFF01E00FFFF3B
:10565000F81FFC07FFFFFFFFFFFFFFF00000FF7FC9
:10566000F81FFC07FFFFFFFFFFFFFFF0FFC0FC7FFD
:10567000F81FFC07FFFFFFFFFFFFFFF0FFC0E07F09
:10568000F81FFC07FFFFFFFFFFFFFFF0FFC0C07F19
:10569000F81FFC07FFFFFFFFFFFFFFF00180C07F47
:1056A000F81FFC07FFFFFFFFFFFFFFF000C0C07FF8
:1056B000F81FFC07FFFFFFFFFFFFFFF000C0C07FE8
:1056C000F81FFC07FFFFFFFFFFFFFFF0FFC0C07FD9
:1056D000F81FFC07FFFFFFFFFFFFFFF0FF80E07FE9
:1056E000F81FFC07FFFFFFFFFFFFFFF0FF00E07F59
:1056F000F81FFC07FFFFFFFFFFFFFFF00000E000C7
:1057000000003C07FFFFFFFFFFFFFFF00000E0008D
:1057100000003C07FFFFFFFFFFFFFFF0FFD8E000A6
:1057200000001C07FFFFFFFFFFFFFFF0FFD8F000A6
:1057300000001C07FFFFFFFFFFFFFFF0FFD8F00096
:1057400000000C07FFFFFFFFFFFFFFF00000F80065
:1057500000000407FFFFFFFFFFFFFFF00000FFFF57
:10576000F81C0407FFFFFFFFFFFFFFF01E00FFFF15
:10577000F81E0007FFFFFFFFFFFFFFF07F80FFFF26
:10578000F81E0007FFFFFFFFFFFFFFF07F80FFFF16
:10579000F81F0007FFFFFFFFFFFFFFF0E1C0FFFF63
:1057A000F81F0007FFFFFFFFFFFFFFF0C0C0FFFF74
:1057B000F81F8007FFFFFFFFFFFFFFF0C0C0FFFFE4
:1057C000F81FC007FFFFFFFFFFFFFFF0C0C0FFFF94
:1057D000F81FC007FFFFFFFFFFFFFFF040C0FFFF04
:1057E000F81FE007FFFFFFFFFFFFFFF00000FFFFD4
:1057F000F81FF007FFFFFFFFFFFFFFF04300FFFF71
:10580000F81FF807FFFFFFFFFFFFFFF0C780FFFF54
:10581000F81FF807FFFFFFFFFFFFFFF0CFC0FFFFFC
:10582000F81FFC0FFFFFFFFFFFFFFFF0CCC0FFFFE3
:10583000F81FFE1FFFFFFFFFFFFFFFF0FCC0FFFF91
:10584000F81FFF3FFFFFFFFFFFFFFFF078C0FFFFE4
:10585000F81FFFFFFFFFFFFFFFFFFFF03040FFFFDC
:10586000F81FFFFFFFFFFFFFFFFFFFF00000FFFF3C
:10587000F81FFFFFFFFFFFFFFFFFFFF00000FFFF2C
:10588000F81FFFFFFFFFFFFFFFFFFFF00000FFFF1C
:10589000FFFFFFFFFFFFFFFFFFFFFFF00000FFFF25
:1058A000FFFFFFFFFFFFFFFFFFFFFFF00000FFFF15
:1058B000FFFFFFFFFFFFFFFFFFFFFFF00000FFFF05
:1058C000FFFFFFFFFFFFFFFFFFFFFFF00000FFFFF5
:1058D000FFFFFFFFFFFFFFFFFFFFFFF00000FFFFE5
:1058E000FFFFFFFFFFFFFFFFFFFFFFFFFFFFFFFFC8
:1058F000FFFFFFFFFFFFFFFFFFFFFFFFFFFFFFFFB8
:10590000FFFFFFFFFFFFFFFFFFFFFFFFFFFFFFFFA7
:10591000FFFFFFFFFFFFFFFFFFFFFFFFFFFFFFFF97
:10592000FFFFFFFFFFFFFFFFFFFFFFFFFFFFFFFF87
:10593000FFFFFFFFFFFFFFFFFFFFFFFFFFFFFFFF77
:10594000FFFFFFFFFFFFFFFFFFFFFFFFFFFFFFFF67
:10595000FFFFFFFFFFFFFFFFFFFFFFFFFFFFFFFF57
:10596000FFFFFFFFFFFFFFFFFFFFFFFFFFFFFFFF47
:10597000FFFFFFFFFFFFFFFFFFFFFFFFFFFFFFFF37
:10598000FFFFFFFFFFFFFFFFFFFFFFFFFFFFFFFF27
:10599000FFFFFFFFFFFFFFFFFFFFFFFFFFFFFFFF17
:1059A000FFFFFFFFFFFFFFFFFFFFFFFFFFFFFFFF07
:1059B000FFFFFFFFFFFFFFFFFFFFFFFFFFFFFFFFF7
:1059C000FFFFFFFFFFFFFFFFFFFFFFFFFFFFFFFFE7
:1059D000FFFFFFFFFFFFFFFFFFFFFFFFFFFFFFFFD7
:1059E000FFFFFFFFFFFFFFFFFFFFFFFFFFFFFFFFC7
:1059F000FFFFFFFFFFFFFFFFFFFFFFFFFFFFFFFFB7
:105A0000FFFFFFFFFFFFFFFFFFFFFFFFFFFFFFFFA6
:105A1000FFFFFFFFFFFFFFFFFFFFFFFFFFFFFFFF96
:105A2000FFFFFFFFFFFFFFFFFFFFFFFFFFFFFFFF86
:105A3000FFFFFFFFFFFFFFFF00000000000000006E
:105A400000000000001010101010000010000000F6
:105A5000006C4848000000000000000000141428FA
:105A60007C287C2850500000001038404038487096
:105A700010100000002050200C70081408000000D6
:105A800000000018202054483400000000101010BE
:105A90001000000000000000000808101010101096
:105AA00010080800002020101010101010202000F6
:105AB00000107C10282800000000000000001010DA
:105AC00010FE101010000000000000000000001880
:105AD0001030200000000000007C000000000000EA
